:020000040800F2
:100000000050002025110008C1100008C910000888
:10001000D1100008D9100008E1100008000000000D
:10002000000000000000000000000000E9100008CF
:10003000F510000800000000011100080D11000873
:100040006D1100086D1100086D1100086D11000898
:100050006D1100086D1100086D1100086D11000888
:100060006D1100086D1100086D1100086D11000878
:100070006D1100086D1100086D1100086D11000868
:100080006D1100086D1100086D1100086D11000858
:100090006D1100086D1100086D1100086D11000848
:1000A0006D1100086D1100086D1100086D11000838
:1000B0006D1100086D1100086D1100086D11000828
:1000C0006D1100086D1100086D1100086D11000818
:1000D0006D1100086D1100086D1100086D11000808
:1000E0006D1100086D1100086D110008000000007E
:1000F0000000000000000000000000000000000000
:0C01000000000000000000005FF808F1A3
:10010C0010B5054C237833B9044B13B10448AFF345
:10011C0000800123237010BD180000200000000097
:10012C00582A000808B5034B1BB103490348AFF329
:10013C00008008BD000000001C000020582A0008A8
:10014C0080B582B000AF0346FB71FB7903F001036D
:10015C00DBB21A461021144801F009FDFB795B084B
:10016C00DBB203F00103DBB21A4620210E4801F08A
:10017C00FEFCFB799B08DBB203F00103DBB21A46F1
:10018C004021094801F0F3FCFB79DB08DBB203F0FA
:10019C000103DBB21A468021034801F0E8FC00BFE2
:1001AC000837BD4680BD00BF0008014080B500AFD8
:1001BC0001220221074801F0DAFC052001F034F895
:1001CC0000220221034801F0D2FC052001F02CF89A
:1001DC0000BF80BD0008014080B582B000AF03466F
:1001EC00FB71002201210C4801F0C1FCFB791B09B9
:1001FC00DBB21846FFF7A4FFFFF7D8FFFB7903F03B
:10020C000F03DBB21846FFF79BFFFFF7CFFF00BFD2
:10021C000837BD4680BD00BF0008014080B582B0E4
:10022C0000AF0346FB71012201210C4801F09FFC39
:10023C00FB791B09DBB21846FFF782FFFFF7B6FF0D
:10024C00FB7903F00F03DBB21846FFF779FFFFF7DA
:10025C00ADFF00BF0837BD4680BD00BF00080140A0
:10026C0080B500AF642000F0DFFF0220FFF7B4FF81
:10027C002820FFF7B1FF0C20FFF7AEFF0620FFF799
:10028C00ABFF0120FFF7A8FF0A2000F0CDFF00BF55
:10029C0080BD80B582B000AF786006E07B685A1CE8
:1002AC007A601B781846FFF7B9FF7B681B78002B28
:1002BC00F4D100BF00BF0837BD4680BD80B500AF8C
:1002CC000120FFF789FF0A2000F0AEFF00BF80BDC0
:1002DC0080B584B000AF03460A46FB711346BB7170
:1002EC00FB79002B02D1BB79FB7302E0BB79403365
:1002FC00FB73FB7B63F07F03DBB21846FFF76CFFED
:10030C0000BF1037BD4680BD80B500AF0F20FFF792
:10031C0063FF00BF80BD80B500AF0C20FFF75CFF12
:10032C0000BF80BD80B588B000AF786001F0F4F8F4
:10033C0001237B610123FB617B68BB6100233B6173
:10034C0007F10C0207F110031146184601F0CCF925
:10035C0001F008F900BF2037BD4680BDB0B582B0B2
:10036C0000AF78600B467B8001F0D6F87B880022CA
:10037C001C46154622462B467968012001F05CF894
:10038C0001F0F0F800BF0837BD46B0BD80B500AF36
:10039C0000F0E8FE00F009F800F0B0F800F04AF8C0
:1003AC0000F01AF900F060FBFCE780B590B000AFEC
:1003BC0007F1180328220021184602F01BFB3B1DF5
:1003CC0000221A605A609A60DA601A610123BB61DC
:1003DC004FF48033FB6100233B620123BB62022399
:1003EC007B634FF48033BB634FF4E013FB6307F183
:1003FC001803184601F0D4FB0346002B01D000F083
:10040C0005FE0F237B600223BB600023FB604FF4CF
:10041C0080633B6100237B613B1D0221184601F088
:10042C0041FE0346002B01D000F0F0FD00BF403729
:10043C00BD4680BD80B58CB000AF07F12003002213
:10044C001A605A609A60DA6007F10C0300221A6095
:10045C005A609A60DA601A613B1D00221A605A6079
:10046C00254B4FF080421A60234B00225A60224BDE
:10047C0000229A60204B4FF6FF72DA601E4B00226E
:10048C001A611D4B00229A611B4801F067FF03465D
:10049C00002B01D000F0BAFD4FF480533B6207F102
:1004AC0020031946144801F0A8FF0346002B01D085
:1004BC0000F0ACFD0023FB6020233B6107F10C0333
:1004CC0019460D4802F060F80346002B01D000F0ED
:1004DC009DFD00237B600023BB603B1D1946064835
:1004EC0002F02AFA0346002B01D000F08FFD00BF6A
:1004FC003037BD4680BD00BF4C00002080B588B0B1
:10050C0000AF07F1100300221A605A609A60DA609B
:10051C002E4B9B692D4A43F0200393612B4B9B6917
:10052C0003F02003FB60FB68284B9B69274A43F0D0
:10053C0004039361254B9B6903F00403BB60BB6808
:10054C00224B9B69214A43F0080393611F4B9B6923
:10055C0003F008037B607B68002248F2FF011C4813
:10056C0001F005FB002240F60F711A4801F0FFFA6A
:10057C0048F2FF033B6101237B610023BB61022333
:10058C00FB6107F110031946114801F055F940F6CB
:10059C000F733B6101237B610023BB610223FB6171
:1005AC0007F1100319460B4801F046F9F0233B61A3
:1005BC0000237B610123BB6107F110031946054839
:1005CC0001F03AF900BF2037BD4680BD0010024053
:1005DC0000080140000C014080B500AFFFF76EFE33
:1005EC00164B01221A70164B09221A70FFF738FEAF
:1005FC0004210020FFF76CFE1248FFF74AFE322060
:10060C0000F012FE00210120FFF762FE0E48FFF7FA
:10061C0040FE09210120FFF75BFEFFF775FE0B4B37
:10062C0000221A70054B01221A70054B09221A7010
:10063C00074B00221A7000BF80BD00BF06000020CF
:10064C0007000020702A00087C2A000842000020C5
:10065C004600002080B582B000AF7860144B1B7848
:10066C00052B20D8124B1B781A467B68D9B2114B3C
:10067C009954114B1B68002B0FD00D4B1B781A464D
:10068C007B68D9B20D4B9954094B1B78052B04D1BF
:10069C0000F0D8F8084B00221A60054B1B78013388
:1006AC00DAB2034B1A7000BF0837BD4680BD00BFDD
:1006BC0042000020340000204800002000000020F0
:1006CC0080B500AF124B01221A70124B00221A7027
:1006DC00FFF7F4FD1048FFF7DCFDFFF71CFE4FF4AD
:1006EC007A7000F0A1FDFFF7E9FD01210020FFF772
:1006FC00EFFD0A48FFF7CDFD00210120FFF7E8FDD3
:10070C000748FFF7C6FDFFF7FFFD00BF80BD00BF28
:10071C004600002042000020882A0008942A000885
:10072C00A42A000880B500AFFFF7CAFF034B0122D3
:10073C001A70034B02221A7000BF80BD0600002005
:10074C000700002080B582B000AF334B01221A7035
:10075C0000237B601FE0314A7B6813441A783049D0
:10076C007B680B441B789A4203D02B4B00221A70E7
:10077C0014E02C4B1B78042B03D92A4B1B78062B2B
:10078C0003D9254B00221A7008E0234B01221A7062
:10079C007B6801337B607B68052BDCDD1E4B1B7893
:1007AC00012B18D0FFF78AFD01210020FFF790FDE7
:1007BC001D48FFF76EFD01210120FFF789FD1B4845
:1007CC00FFF767FDFFF7A7FD40F2DC5000F02CFDB2
:1007DC00FFF7A8FF1BE0FFF771FD01210020FFF7D9
:1007EC0077FD1348FFF755FD00210120FFF770FD41
:1007FC001048FFF74EFD104B01221A700F4B0222CE
:10080C001A70084B00221A700D4B01221A6000BF9F
:10081C000837BD4680BD00BF450000200000002009
:10082C003400002042000020A82A0008B02A00084A
:10083C00C02A0008A42A0008060000200700002097
:10084C004800002080B500AF0548FFF76BFD054B55
:10085C009BB219460248FFF781FD00BF80BD00BF67
:10086C003C7C00083C00002080B582B000AF724B8D
:10087C0001221A7000237B601CE0704A7B681344D1
:10088C001A786F497B680B441B789A4203D06A4BE9
:10089C0000221A7011E06B4B1B78042B03D9694BA7
:1008AC001B78062B03D9644B00221A7005E07B6879
:1008BC0001337B607B68052BDFDD5F4B1B78012BE5
:1008CC004CD0FFF7FBFC01224FF400615E4801F0B5
:1008DC004EF9012204215D4801F049F94FF4FA70F8
:1008EC0000F0A2FC00220421584801F040F9052137
:1008FC000020FFF7EDFC5648FFF7CBFC012101204F
:10090C00FFF7E6FC5348FFF7C4FCFFF704FD4FF478
:10091C007A7000F089FC00224FF400614A4801F023
:10092C0026F94D4B1B78013BDAB24B4B1A704A4BF4
:10093C001B78002B0FD1FFF7C1FC00210020FFF723
:10094C00C7FC4648FFF7A5FC47F2305000F06CFCA2
:10095C00414B03221A70FFF73FFE68E001224FF46F
:10096C008061394801F003F901220421374801F074
:10097C00FEF8642000F058FC00220421334801F0FA
:10098C00F6F8642000F050FC012204212F4801F0FD
:10099C00EEF8642000F048FC002204212B4801F002
:1009AC00E6F8642000F040FC01220421274801F005
:1009BC00DEF8642000F038FC00220421234801F00A
:1009CC00D6F8642000F030FC012204211F4801F00D
:1009DC00CEF8642000F028FC002204211B4801F012
:1009EC00C6F8FFF76BFC02210020FFF771FC1C48D6
:1009FC00FFF74FFC03210120FFF76AFC1948FFF7B2
:100A0C0048FCFFF788FC114B08221A6141F2707008
:100A1C0000F00AFC0D4B4FF400221A610A4B4FF008
:100A2C0080621A610C4B03221A70FFF7D5FD00BFD0
:100A3C000837BD4680BD00BF4400002000000020E8
:100A4C003400002042000020000C0140000801404E
:100A5C00D02A0008D82A000808000020E82A00083C
:100A6C00F82A0008082B000880B500AF012240F2DC
:100A7C000B11B64801F07BF800220121B34801F0BC
:100A8C0076F801224FF48571B04801F070F810210E
:100A9C00AE4801F055F80346002B24D1822000F01B
:100AAC00C3FB1021A94801F04BF80346002B1AD1C7
:100ABC00A74B1B78A74A127811461846FFF708FC7B
:100ACC00FFF722FCA448FFF7E4FBA44B07221A70A3
:100ADC00A24B1B781846FFF7BDFD9E4B1B780133CC
:100AEC00DAB29C4B1A702021984801F029F8034681
:100AFC00002B24D1822000F097FB2021934801F099
:100B0C001FF80346002B1AD1914B1B78914A12788F
:100B1C0011461846FFF7DCFBFFF7F6FB9048FFF792
:100B2C00B8FB8E4B04221A708C4B1B781846FFF7BF
:100B3C0091FD884B1B780133DAB2864B1A70402139
:100B4C00824800F0FDFF0346002B24D1642000F006
:100B5C006BFB40217D4800F0F3FF0346002B1AD1BC
:100B6C007B4B1B787B4A127811461846FFF7B0FB7B
:100B7C00FFF7CAFB7B48FFF78CFB784B01221A70FE
:100B8C00764B1B781846FFF765FD724B1B780133CB
:100B9C00DAB2704B1A7080216C4800F0D1FF03461A
:100BAC00002B1CD1822000F03FFB8021674800F015
:100BBC00C7FF0346002B12D1654B1B78654A127890
:100BCC0011461846FFF784FBFFF79EFB6648FFF7BC
:100BDC0060FB604B1B780133DAB25E4B1A7000225B
:100BEC0002215A4800F0C3FF012240F20911574874
:100BFC0000F0BDFF1021554800F0A2FF0346002B6A
:100C0C0024D1822000F010FB1021504800F098FFF6
:100C1C000346002B1AD14E4B1B784E4A12781146C4
:100C2C001846FFF755FBFFF76FFB5048FFF731FBFA
:100C3C004A4B08221A70494B1B781846FFF70AFDDD
:100C4C00444B1B780133DAB2424B1A7020213F48D7
:100C5C0000F076FF0346002B24D1822000F0E4FA4A
:100C6C0020213A4800F06CFF0346002B1AD1384B78
:100C7C001B78384A127811461846FFF729FBFFF704
:100C8C0043FB3B48FFF705FB344B05221A70334BF3
:100C9C001B781846FFF7DEFC2E4B1B780133DAB2BB
:100CAC002C4B1A704021294800F04AFF0346002BB8
:100CBC0024D1822000F0B8FA4021244800F040FFF3
:100CCC000346002B1AD1224B1B78224A127811466C
:100CDC001846FFF7FDFAFFF717FB2648FFF7D9FA7E
:100CEC001E4B02221A701D4B1B781846FFF7B2FCE4
:100CFC00184B1B780133DAB2164B1A70802113484B
:100D0C0000F01EFF0346002B3ED1642000F08CFA4D
:100D1C0080210E4800F014FF0346002B34D10C4BFD
:100D2C001B780C4A127811461846FFF7D1FAFFF7D8
:100D3C00EBFA1148FFF7ADFA084B00221A70074B7B
:100D4C001B781846FFF786FC18E000BF000C01402A
:100D5C000600002007000020142B00084300002090
:100D6C00182B00081C2B0008202B0008242B000833
:100D7C00282B00082C2B0008302B0008984B1B78D4
:100D8C000133DAB2964B1A7000224FF480719548F9
:100D9C0000F0EDFE01220B21924800F0E8FE10213C
:100DAC00904800F0CDFE0346002B21D110218D4838
:100DBC0000F0C6FE0346002B1AD18B4B1B78884AD9
:100DCC00127811461846FFF783FAFFF79DFA874809
:100DDC00FFF75FFA864B09221A70854B1B78184671
:100DEC00FFF738FC7E4B1B780133DAB27C4B1A7060
:100DFC0020217C4800F0A4FE0346002B24D1822045
:100E0C0000F012FA2021774800F09AFE0346002BDE
:100E1C001AD1754B1B78724A127811461846FFF797
:100E2C0057FAFFF771FA7348FFF733FA704B062243
:100E3C001A706F4B1B781846FFF70CFC684B1B782D
:100E4C000133DAB2664B1A704021664800F078FE26
:100E5C000346002B24D1822000F0E6F940216148A2
:100E6C0000F06EFE0346002B1AD15F4B1B785C4AD8
:100E7C00127811461846FFF72BFAFFF745FA5E4831
:100E8C00FFF707FA5A4B03221A70594B1B78184676
:100E9C00FFF7E0FB524B1B780133DAB2504B1A7060
:100EAC008021504800F04CFE0346002B1CD18220C0
:100EBC0000F0BAF980214B4800F042FE0346002BAB
:100ECC0012D1494B1B78464A127811461846FFF747
:100EDC00FFF9FFF719FA4948FFF7DBF9404B1B788C
:100EEC000133DAB23E4B1A70002208213D4800F063
:100EFC003EFE012240F203113A4800F038FE102168
:100F0C00384800F01DFE0346002B15D1822000F05E
:100F1C008BF91021334800F013FE0346002B0BD144
:100F2C00374B1B78002B01D1FFF79EFC344B1B7801
:100F3C00012B01D1FFF706FC20212A4800F000FE0E
:100F4C000346002B22D1822000F06EF92021254887
:100F5C0000F0F6FD0346002B18D1214B1B78013B0A
:100F6C00DAB21F4B1A70FFF7CFF92648FFF791F949
:100F7C001D4B1B781A4A127811461846FFF7A8F930
:100F8C00214B1B78013BDAB21F4B1A7040211548DC
:100F9C0000F0D6FD0346002B0BD1822000F044F963
:100FAC004021104800F0CCFD0346002B01D1FFF787
:100FBC00B9FB80210B4800F0C3FD0346002B0BD17D
:100FCC00822000F031F98021064800F0B9FD03467B
:100FDC00002B01D1FFF700FB054B1B78184680BD99
:100FEC0007000020000C014006000020342B0008F4
:100FFC0043000020382B00083C2B0008402B000835
:10100C0046000020442B00084200002080B400AFB2
:10101C0072B600BF00BFFDE780B485B000AF154BC2
:10102C009B69144A43F001039361124B9B6903F0D3
:10103C000103BB60BB680F4BDB690E4A43F0805366
:10104C00D3610C4BDB6903F080537B607B680A4BEC
:10105C005B68FB60FB6823F0E063FB60FB6843F0BC
:10106C000073FB60044AFB68536000BF1437BD4635
:10107C0080BC7047001002400000014080B485B075
:10108C0000AF78607B681B68B3F1804F0BD1084BC5
:10109C00DB69074A43F00103D361054BDB6903F0BD
:1010AC000103FB60FB6800BF1437BD4680BC704772
:1010BC000010024080B400AF00BFFDE780B400AF69
:1010CC0000BFFDE780B400AF00BFFDE780B400AF08
:1010DC0000BFFDE780B400AF00BFFDE780B400AFF8
:1010EC0000BFBD4680BC704780B400AF00BFBD469A
:1010FC0080BC704780B400AF00BFBD4680BC704759
:10110C0080B500AF00F074F800BF80BD80B400AFB4
:10111C0000BFBD4680BC7047FFF7F8FF0B480C4979
:10112C000C4A002302E0D458C4500433C4188C4237
:10113C00F9D3094A094C002301E013600432A2429E
:10114C00FBD301F05FFCFFF721F970470000002092
:10115C0018000020742B000818000020B800002094
:10116C00FEE7000080B500AF084B1B68074A43F050
:10117C0010031360032000F02BF90F2000F008F887
:10118C00FFF74AFF0023184680BD00BF0020024035
:10119C0080B582B000AF7860124B1A68124B1B7886
:1011AC0019464FF47A73B3FBF1F3B2FBF3F3184621
:1011BC0000F035F90346002B01D001230EE07B68CB
:1011CC000F2B0AD8002279684FF0FF3000F00BF992
:1011DC00064A7B681360002300E001231846083799
:1011EC00BD4680BD0C000020140000201000002023
:1011FC0080B400AF054B1B781A46054B1B68134493
:10120C00034A136000BFBD4680BC70471400002029
:10121C009400002080B400AF024B1B681846BD46FA
:10122C0080BC70479400002080B584B000AF78601B
:10123C00FFF7F0FFB8607B68FB60FB68B3F1FF3F22
:10124C0005D00A4B1B781A46FB681344FB6000BFA1
:10125C00FFF7E0FF0246BB68D31AFA689A42F7D848
:10126C0000BF00BF1037BD4680BD00BF140000207A
:10127C0080B485B000AF78607B6803F00703FB6037
:10128C000C4BDB68BB60BA684FF6FF031340BB60C6
:10129C00FB681A02BB68134343F0BF6343F400338B
:1012AC00BB60044ABB68D36000BF1437BD4680BC2A
:1012BC00704700BF00ED00E080B400AF044BDB686A
:1012CC001B0A03F007031846BD4680BC704700BFDD
:1012DC0000ED00E080B483B000AF03463960FB71D1
:1012EC0097F90730002B0ADB3B68DAB20C4997F907
:1012FC0007301201D2B20B4483F800230AE03B689A
:10130C00DAB20849FB7903F00F03043B1201D2B2A5
:10131C000B441A7600BF0C37BD4680BC704700BF2B
:10132C0000E100E000ED00E080B489B000AFF860AF
:10133C00B9607A60FB6803F00703FB61FB69C3F1DA
:10134C000703042B28BF0423BB61FB690433062B62
:10135C0002D9FB69033B00E000237B614FF0FF32B5
:10136C00BB6902FA03F3DA43BB681A407B699A4003
:10137C004FF0FF317B6901FA03F3D9437B680B40D3
:10138C00134318462437BD4680BC704780B582B0E5
:10139C0000AF78607B68013BB3F1807F01D3012300
:1013AC000FE00A4A7B68013B53600F214FF0FF307E
:1013BC00FFF790FF054B00229A60044B07221A603E
:1013CC00002318460837BD4680BD00BF10E000E082
:1013DC0080B582B000AF78607868FFF749FF00BF36
:1013EC000837BD4680BD80B586B000AF0346B960F6
:1013FC007A60FB7300237B61FFF75EFF78617A688C
:10140C00B9687869FFF790FF024697F90F301146DB
:10141C001846FFF75FFF00BF1837BD4680BD80B58B
:10142C0082B000AF78607868FFF7B0FF03461846CB
:10143C000837BD4680BD0000F0B587B000AFF8603E
:10144C00B960C7E900230123FB750023BB7500239A
:10145C007B752F4B1B7E012B01D1022354E02C4BAF
:10146C0001221A764CF2503000F0A8F80346FB75B6
:10147C00FB7D002B44D1FB68012B02D101237B7532
:10148C0007E0FB68022B02D102237B7501E00423E9
:10149C007B750023BB752DE0BB7D5A00BB6802EB4E
:1014AC00030CBB7D1901D7E90023C1F12006A1F182
:1014BC00200022FA01F403FA06F6344323FA00F072
:1014CC00044323FA01F5A3B21946604600F05AF81A
:1014DC004CF2503000F072F80346FB750D4B1B6953
:1014EC000C4A23F001031361FB7D002B07D1BB7D5C
:1014FC000133BB75BA7D7B7D9A42CDD300E000BF32
:10150C00034B00221A76FB7D18461C37BD46F0BDF6
:10151C00980000200020024080B483B000AF00236C
:10152C00FB710D4B1B6903F08003002B0DD00A4B94
:10153C000A4A5A60084B0A4A5A60074B1B6903F067
:10154C008003002B01D00123FB71FB7918460C376B
:10155C00BD4680BC704700BF002002402301674598
:10156C00AB89EFCD80B400AF054B1B69044A43F047
:10157C008003136100231846BD4680BC704700BF32
:10158C000020024080B483B000AF78600B467B80B3
:10159C00084B0022DA61084B1B69074A43F0010330
:1015AC0013617B687A881A8000BF0C37BD4680BCFB
:1015BC00704700BF980000200020024080B584B026
:1015CC0000AF7860FFF726FEF86010E07B68B3F19F
:1015DC00FF3F0CD07B68002B07D0FFF71BFE0246A9
:1015EC00FB68D31A7A689A4201D2032325E0154B83
:1015FC00DB6803F00103002BE8D1124BDB6803F02E
:10160C002003002B02D00F4B2022DA600D4BDB683D
:10161C0003F01003002B0BD10A4BDB6903F0010321
:10162C00002B05D1074BDB6803F00403002B03D020
:10163C0000F00AF8012300E0002318461037BD46DD
:10164C0080BD00BF0020024080B483B000AF0023F7
:10165C007B60234BDB6803F01003002B09D0214B7C
:10166C00DB6943F002031F4AD3617B6843F010032C
:10167C007B601B4BDB6803F00403002B09D0194B78
:10168C00DB6943F00103174AD3617B6843F0040321
:10169C007B60134BDB6903F00103002B0BD0114B68
:1016AC00DB6943F004030F4AD3610D4BDB690C4A31
:1016BC0023F00103D3617B6840F20112934206D1FF
:1016CC00074BDB69064A23F00103D36102E0044AAD
:1016DC007B68D36000BF0C37BD4680BC704700BF31
:1016EC00002002409800002080B584B000AF7860E4
:1016FC0039600123FB730023BB602F4B1B7E012B36
:10170C0001D1022353E02C4B01221A767B681B6813
:10171C00022B16D14CF25030FFF750FF0346002B32
:10172C0041D1012000F04CF84CF25030FFF746FF4D
:10173C000346FB73214B1B69204A23F004031361FE
:10174C0031E04CF25030FFF739FF0346002B2AD121
:10175C003B684FF0FF321A607B689B68BB6019E0F6
:10176C00B86800F049F84CF25030FFF727FF0346F9
:10177C00FB73124B1B69114A23F002031361FB7BB1
:10178C00002B03D03B68BA681A600CE0BB6803F509
:10179C008063BB607B68DB689A027B689B68134440
:1017AC00BA689A42DCD3044B00221A76FB7B1846AB
:1017BC001037BD4680BD00BF9800002000200240BD
:1017CC0080B483B000AF7860094B0022DA61094B1A
:1017DC001B69084A43F004031361064B1B69054A55
:1017EC0043F04003136100BF0C37BD4680BC70470B
:1017FC00980000200020024080B483B000AF7860D5
:10180C000B4B0022DA610B4B1B690A4A43F00203B3
:10181C001361084A7B685361064B1B69054A43F008
:10182C004003136100BF0C37BD4680BC704700BF3E
:10183C00980000200020024080B48BB000AF78608C
:10184C00396000237B6200233B6269E101227B6AE1
:10185C0002FA03F3FB613B681B68FA691340BB6136
:10186C00BA69FB699A4240F058813B685B689A4AB6
:10187C0093425ED0984A934275D8984A934258D076
:10188C00964A93426FD8964A934252D0944A9342C6
:10189C0069D8944A93424CD0924A934263D8924A64
:1018AC00934246D0904A93425DD8122B2AD8122BE1
:1018BC0059D801A252F823F03F1900081919000851
:1018CC002B1900086D19000873190008731900080A
:1018DC0073190008731900087319000873190008AC
:1018EC00731900087319000873190008731900089C
:1018FC0073190008731900087319000821190008DE
:10190C0035190008794A934213D02CE03B68DB6808
:10191C003B6229E03B68DB6804333B6224E03B68B4
:10192C00DB6808333B621FE03B68DB680C333B62CF
:10193C001AE03B689B68002B02D104233B6213E046
:10194C003B689B68012B05D108233B627B68FA69D5
:10195C001A6109E008233B627B68FA695A6103E06B
:10196C0000233B6200E000BFBB69FF2B01D87B6802
:10197C0001E07B6804337B61BB69FF2B02D87B6A77
:10198C009B0002E07B6A083B9B003B617B691A6809
:10199C000F213B6901FA03F3DB431A40396A3B69B7
:1019AC0001FA03F31A437B691A603B685B6803F026
:1019BC008053002B00F0B1804D4B9B694C4A43F097
:1019CC00010393614A4B9B6903F00103BB60BB6845
:1019DC00484A7B6A9B08023352F82330FB607B6ACF
:1019EC0003F003039B000F2202FA03F3DB43FA68B4
:1019FC001340FB607B68404A934213D07B683F4A9C
:101A0C0093420DD07B683E4A934207D07B683D4A97
:101A1C00934201D1032306E0042304E0022302E0F5
:101A2C00012300E000237A6A02F003029200934043
:101A3C00FA681343FB602F497B6A9B080233FA68F0
:101A4C0041F823203B685B6803F48013002B06D01D
:101A5C002D4B9A682C49BB6913438B6006E02A4BCB
:101A6C009A68BB69DB43284913408B603B685B6811
:101A7C0003F40013002B06D0234BDA682249BB6910
:101A8C001343CB6006E0204BDA68BB69DB431E498D
:101A9C001340CB603B685B6803F40033002B06D02B
:101AAC00194B5A681849BB6913434B6006E0164B37
:101ABC005A68BB69DB43144913404B603B685B6855
:101ACC0003F48033002B21D00F4B1A680E49BB69ED
:101ADC0013430B6021E000BF0000321000003110F6
:101AEC000000221000002110000012100000111044
:101AFC00001002400000014000080140000C0140B1
:101B0C000010014000140140000401400B4B1A6806
:101B1C00BB69DB43094913400B607B6A01337B6271
:101B2C003B681A687B6A22FA03F3002B7FF48EAEB3
:101B3C0000BF00BF2C37BD4680BC7047000401407D
:101B4C0080B485B000AF78600B467B807B689A6868
:101B5C007B881340002B02D00123FB7301E0002390
:101B6C00FB73FB7B18461437BD4680BC704780B4B2
:101B7C0083B000AF78600B467B8013467B707B781C
:101B8C00002B03D07A887B681A6103E07B881A04E7
:101B9C007B681A6100BF0C37BD4680BC70470000E3
:101BAC0080B586B000AF78607B68002B01D1012333
:101BBC0072E27B681B6803F00103002B00F0878046
:101BCC00924B5B6803F00C03042B0CD08F4B5B68BF
:101BDC0003F00C03082B12D18C4B5B6803F480339D
:101BEC00B3F5803F0BD1894B1B6803F40033002BFA
:101BFC006CD07B685B68002B68D101234CE27B685E
:101C0C005B68B3F5803F06D1804B1B687F4A43F479
:101C1C00803313602EE07B685B68002B0CD17B4B10
:101C2C001B687A4A23F480331360784B1B68774A1D
:101C3C0023F4802313601DE07B685B68B3F5A02F51
:101C4C000CD1724B1B68714A43F4802313606F4BA9
:101C5C001B686E4A43F4803313600BE06B4B1B68BC
:101C6C006A4A23F480331360684B1B68674A23F479
:101C7C00802313607B685B68002B13D0FFF7CAFAD4
:101C8C00386108E0FFF7C6FA02463B69D31A642BA9
:101C9C0001D9032300E25D4B1B6803F40033002BD6
:101CAC00F0D014E0FFF7B6FA386108E0FFF7B2FAAB
:101CBC0002463B69D31A642B01D90323ECE1534B45
:101CCC001B6803F40033002BF0D100E000BF7B68ED
:101CDC001B6803F00203002B63D04C4B5B6803F0D2
:101CEC000C03002B0BD0494B5B6803F00C03082B47
:101CFC001CD1464B5B6803F48033002B16D1434B4D
:101D0C001B6803F00203002B05D07B681B69012BB9
:101D1C0001D00123C0E13D4B1B6823F0F8027B6826
:101D2C005B69DB00394913430B603AE07B681B6944
:101D3C00002B20D0364B01221A60FFF76BFA38616A
:101D4C0008E0FFF767FA02463B69D31A022B01D968
:101D5C000323A1E12D4B1B6803F00203002BF0D0F1
:101D6C002A4B1B6823F0F8027B685B69DB00274970
:101D7C0013430B6015E0264B00221A60FFF74AFA5A
:101D8C00386108E0FFF746FA02463B69D31A022B8A
:101D9C0001D9032380E11D4B1B6803F00203002BC8
:101DAC00F0D17B681B6803F00803002B3AD07B68EA
:101DBC009B69002B19D0174B01221A60FFF72AFAE6
:101DCC00386108E0FFF726FA02463B69D31A022B6A
:101DDC0001D9032360E10D4B5B6A03F00203002B76
:101DEC00F0D0012000F09CFA1CE00A4B00221A6093
:101DFC00FFF710FA38610FE0FFF70CFA02463B6967
:101E0C00D31A022B08D9032346E100BF001002406D
:101E1C000000424280044242924B5B6A03F0020390
:101E2C00002BE9D17B681B6803F00403002B00F046
:101E3C00A6800023FB758B4BDB6903F08053002BD2
:101E4C000DD1884BDB69874A43F08053D361854BB6
:101E5C00DB6903F08053BB60BB680123FB75824BCD
:101E6C001B6803F48073002B18D17F4B1B687E4AD0
:101E7C0043F480731360FFF7CDF9386108E0FFF786
:101E8C00C9F902463B69D31A642B01D9032303E138
:101E9C00754B1B6803F48073002BF0D07B68DB68F8
:101EAC00012B06D16F4B1B6A6E4A43F00103136280
:101EBC002DE07B68DB68002B0CD16A4B1B6A694AEE
:101ECC0023F001031362674B1B6A664A23F0040379
:101EDC0013621CE07B68DB68052B0CD1614B1B6A21
:101EEC00604A43F0040313625E4B1B6A5D4A43F085
:101EFC00010313620BE05B4B1B6A5A4A23F001038C
:101F0C001362584B1B6A574A23F0040313627B6815
:101F1C00DB68002B15D0FFF77DF938610AE0FFF77D
:101F2C0079F902463B69D31A41F28832934201D9BE
:101F3C000323B1E04B4B1B6A03F00203002BEED0E2
:101F4C0014E0FFF767F938610AE0FFF763F902461E
:101F5C003B69D31A41F28832934201D903239BE0A7
:101F6C00404B1B6A03F00203002BEED1FB7D012BCF
:101F7C0005D13C4BDB693B4A23F08053D3617B6832
:101F8C00DB69002B00F08780364B5B6803F00C0399
:101F9C00082B61D07B68DB69022B46D1334B0022C6
:101FAC001A60FFF737F9386108E0FFF733F902469A
:101FBC003B69D31A022B01D903236DE0294B1B6813
:101FCC0003F00073002BF0D17B681B6AB3F5803FE4
:101FDC0008D1244B5B6823F400327B689B68214951
:101FEC0013434B601F4B5B6823F474127B68196AB4
:101FFC007B685B6A0B431B4913434B601B4B0122F1
:10200C001A60FFF707F9386108E0FFF703F9024699
:10201C003B69D31A022B01D903233DE0114B1B68FA
:10202C0003F00073002BF0D035E0104B00221A6047
:10203C00FFF7F0F8386108E0FFF7ECF802463B696F
:10204C00D31A022B01D9032326E0064B1B6803F09D
:10205C000073002BF0D11EE07B68DB69012B07D1EC
:10206C00012319E000100240007000406000424261
:10207C000B4B5B68FB60FB6803F480327B681B6A6C
:10208C009A4206D1FB6803F470127B685B6A9A4231
:10209C0001D0012300E0002318461837BD4680BD4F
:1020AC000010024080B584B000AF786039607B6866
:1020BC00002B01D10123D0E06A4B1B6803F007030E
:1020CC003A689A4210D9674B1B6823F0070265499E
:1020DC003B6813430B60634B1B6803F007033A68C0
:1020EC009A4201D00123B8E07B681B6803F002031D
:1020FC00002B20D07B681B6803F00403002B05D059
:10210C00594B5B68584A43F4E06353607B681B6827
:10211C0003F00803002B05D0534B5B68524A43F481
:10212C0060535360504B5B6823F0F0027B689B68F4
:10213C004D4913434B607B681B6803F00103002B74
:10214C0040D07B685B68012B07D1474B1B6803F4BD
:10215C000033002B15D101237FE07B685B68022BD9
:10216C0007D1414B1B6803F00073002B09D10123ED
:10217C0073E03D4B1B6803F00203002B01D10123DC
:10218C006BE0394B5B6823F003027B685B68364974
:10219C0013434B60FFF73EF8F8600AE0FFF73AF89C
:1021AC000246FB68D31A41F28832934201D90323C9
:1021BC0053E02D4B5B6803F00C027B685B689B0063
:1021CC009A42EBD1274B1B6803F007033A689A42FB
:1021DC0010D2244B1B6823F0070222493B6813439F
:1021EC000B60204B1B6803F007033A689A4201D03E
:1021FC00012332E07B681B6803F00403002B08D03A
:10220C00194B5B6823F4E0627B68DB681649134367
:10221C004B607B681B6803F00803002B09D0124B42
:10222C005B6823F460527B681B69DB000E49134327
:10223C004B6000F021F802460B4B5B681B0903F066
:10224C000F030A49CB5C22FA03F3094A1360094BCA
:10225C001B681846FEF79CFF002318461037BD4636
:10226C0080BD00BF0020024000100240482B000837
:10227C000C0000201000002080B487B000AF0023B9
:10228C00FB600023BB6000237B6100237B60002389
:10229C003B611E4B5B68FB60FB6803F00C03042B7B
:1022AC0002D0082B03D027E0194B3B6127E0FB68D9
:1022BC009B0C03F00F03174AD35C7B60FB6803F4A1
:1022CC008033002B10D0114B5B685B0C03F00103C7
:1022DC00114AD35CBB607B680D4A03FB02F2BB68FE
:1022EC00B2FBF3F37B6104E07B680C4A02FB03F363
:1022FC007B617B693B6102E0054B3B6100BF3B6945
:10230C0018461C37BD4680BC704700BF0010024009
:10231C0000127A00582B0008682B000800093D00B9
:10232C0080B485B000AF78600A4B1B680A4AA2FBE8
:10233C0003235B0A7A6802FB03F3FB6000BFFB68B4
:10234C005A1EFA60002BF9D100BF00BF1437BD46EE
:10235C0080BC70470C000020D34D621080B582B059
:10236C0000AF78607B68002B01D1012341E07B68D2
:10237C0093F83D30DBB2002B06D17B68002283F84A
:10238C003C207868FEF77AFE7B68022283F83D20B9
:10239C007B681A687B6804331946104600F036F9DE
:1023AC007B68012283F846207B68012283F83E205B
:1023BC007B68012283F83F207B68012283F8402050
:1023CC007B68012283F841207B68012283F842203C
:1023DC007B68012283F843207B68012283F8442028
:1023EC007B68012283F845207B68012283F83D201D
:1023FC00002318460837BD4680BD80B584B000AFB9
:10240C00786039600023FB737B6893F83C30012BB8
:10241C0001D10223B4E07B68012283F83C207B6865
:10242C00022283F83D207B681B689B68BB60BB68FD
:10243C0023F07703BB60BB6823F47F43BB607B68EE
:10244C001B68BA689A603B681B68B3F5005F3ED0A6
:10245C00B3F5005F00F28780B3F5805F00F08680F3
:10246C00B3F5805F7FD8702B1AD0702B7BD8602B84
:10247C0050D0602B77D8502B3CD0502B73D8402B9E
:10248C0058D0402B6FD8302B64D0302B6BD8202BEE
:10249C0060D0202B67D8002B5CD0102B5AD062E078
:1024AC007B6818683B6899683B685A683B68DB68CE
:1024BC0000F022FA7B681B689B68BB60BB6843F02A
:1024CC007703BB607B681B68BA689A604FE07B68D7
:1024DC0018683B6899683B685A683B68DB6800F091
:1024EC000BFA7B681B689A687B681B6842F4804215
:1024FC009A603CE07B6818683B6859683B68DB680D
:10250C001A4600F082F97B681B685021184600F0CF
:10251C00D9F92CE07B6818683B6859683B68DB6824
:10252C001A4600F0A0F97B681B686021184600F081
:10253C00C9F91CE07B6818683B6859683B68DB6824
:10254C001A4600F062F97B681B684021184600F0BF
:10255C00B9F90CE07B681A683B681B681946104691
:10256C0000F0B0F903E00123FB7300E000BF7B68CF
:10257C00012283F83D207B68002283F83C20FB7B02
:10258C0018461037BD4680BD80B582B000AF78606C
:10259C0039607B6893F83C30012B01D1022331E088
:1025AC007B68012283F83C207B68022283F83D2063
:1025BC003968786800F098F80346002B09D07B68DE
:1025CC00012283F83D207B68002283F83C20012304
:1025DC0018E07B681B68DA687B681B6822F0400295
:1025EC00DA607B681B68DA687B681B6822F48042BF
:1025FC00DA607B68012283F83D207B68002283F837
:10260C003C20002318460837BD4680BD80B485B0F9
:10261C0000AF786039607B681B68FB607B682F4A71
:10262C0093420BD07B68B3F1804F07D07B682C4A68
:10263C00934203D07B682B4A934208D1FB6823F06A
:10264C007003FB603B685B68FA681343FB607B6854
:10265C00224A93420BD07B68B3F1804F07D07B6842
:10266C001F4A934203D07B681E4A934208D1FB68F1
:10267C0023F44073FB603B68DB68FA681343FB6030
:10268C00FB6823F080023B685B691343FB607B684B
:10269C00FA681A603B689A687B68DA623B681A6869
:1026AC007B689A627B680D4A934203D13B681A6936
:1026BC007B681A637B6801225A617B681B6903F093
:1026CC000103002B05D07B681B6923F001027B689A
:1026DC001A6100BF1437BD4680BC7047002C014006
:1026EC00000400400008004080B586B000AF786060
:1026FC0039600023FB757B681B689B683B613B69F9
:10270C0023F070033B613B685B683A6913433B61A0
:10271C003B6923F007033B613B681B683A69134331
:10272C003B617B681B683A699A603B685B68702BFD
:10273C001AD0702B60D8602B54D0602B5CD8502BE7
:10274C0046D0502B58D8402B19D0402B54D8302B76
:10275C0055D0302B50D8202B51D0202B4CD8002BBF
:10276C004DD0102B4BD047E07B6818683B68D9687C
:10277C003B689A683B681B6900F0BEF840E03B6818
:10278C001B68052B01D101233BE07B681B681B6A8E
:10279C00FB607B681B681A6A7B681B6822F001026D
:1027AC001A627B681B689B69BB60BB6823F0F003F3
:1027BC00BB603B681B691B01BA681343BB607B6839
:1027CC001B68BA689A617B681B68FA681A6217E022
:1027DC007B6818683B6899683B681B691A4600F06F
:1027EC0014F80DE07B6818683B6899683B681B69B6
:1027FC001A4600F038F803E00123FB7500E000BF37
:10280C00FB7D18461837BD4680BD80B487B000AF3D
:10281C00F860B9607A60FB681B6A7B61FB681B6AB5
:10282C0023F00102FB681A62FB689B693B613B6900
:10283C0023F0F0033B617B681B013A6913433B6156
:10284C007B6923F00A037B617A69BB6813437B6164
:10285C00FB683A699A61FB687A691A6200BF1C3797
:10286C00BD4680BC704780B487B000AFF860B960DB
:10287C007A60FB681B6A7B61FB681B6A23F01002A1
:10288C00FB681A62FB689B693B613B6923F47043EC
:10289C003B617B681B033A6913433B617B6923F003
:1028AC00A0037B61BB681B017A6913437B61FB68E6
:1028BC003A699A61FB687A691A6200BF1C37BD4697
:1028CC0080BC704780B485B000AF786039607B689D
:1028DC009B68FB60FB6823F07003FB603A68FB6845
:1028EC00134343F00703FB607B68FA689A6000BFF0
:1028FC001437BD4680BC704780B487B000AFF86019
:10290C00B9607A603B60FB689B687B617B6923F4F0
:10291C007F437B613B681A027B681A43BB68134395
:10292C007A6913437B61FB687A699A6000BF1C3734
:10293C00BD4680BC7047000080B485B000AF7860A5
:10294C0039607B6893F83C30012B01D1022346E0BF
:10295C007B68012283F83C207B68022283F83D20AF
:10296C007B681B685B68FB607B681B689B68BB6053
:10297C00FB6823F07003FB603B681B68FA68134329
:10298C00FB607B681B68FA685A607B681B68164A98
:10299C0093420ED07B681B68B3F1804F09D07B68E3
:1029AC001B68124A934204D07B681B68104A9342FE
:1029BC000CD1BB6823F08003BB603B685B68BA68D2
:1029CC001343BB607B681B68BA689A607B68012202
:1029DC0083F83D207B68002283F83C2000231846B6
:1029EC001437BD4680BC7047002C014000040040E9
:1029FC000008004003460244934200D1704703F89C
:102A0C00011BF9E770B500260C4D0D4C641BA4108E
:102A1C00A64209D100F01AF800260A4D0A4C641B94
:102A2C00A410A64205D170BD55F8043B9847013659
:102A3C00EEE755F8043B98470136F2E76C2B00089B
:102A4C006C2B00086C2B0008702B0008F8B500BF2D
:102A5C00F8BC08BC9E467047F8B500BFF8BC08BC73
:042A6C009E467047CB
:102A700057454C4C434F4D452100000050415353A6
:102A8000434F44453A00000057616974696E672EF0
:102A90002E2E0000456E746572204F6C64205061CC
:102AA000737300003D3E000046414C53452C00002E
:102AB000504C4541534520414741494E202100009B
:102AC000456E746572204E65772050617373000007
:102AD0004641494C2C000000504C45415345204193
:102AE0004741494E2100000057414954494E472073
:102AF000464F522033307300486948692C53554380
:102B0000434553532121000057454C4C434F4D45FD
:102B100021212100370000003400000031000000B6
:102B20002A000000380000003500000032000000DC
:102B300030000000390000003600000033000000C3
:102B40002300000020000000000000000000000042
:102B50000102030406070809020304050607080921
:0C2B60000A0B0C0D0E0F101001020000FB
:042B6C00310100082B
:042B70000D0100084B
:102B740001020304050601090300000000127A00A3
:082B8400100000000100000038
:0400000508001125B9
:00000001FF
