:020000040800F2
:100000000050002031110008CD100008D510000864
:10001000DD100008E5100008ED10000800000000E9
:10002000000000000000000000000000F5100008C3
:1000300001110008000000000D110008191100084E
:100040007911000879110008791100087911000868
:100050007911000879110008791100087911000858
:100060007911000879110008791100087911000848
:100070007911000879110008791100087911000838
:100080007911000879110008791100087911000828
:100090007911000879110008791100087911000818
:1000A0007911000879110008791100087911000808
:1000B00079110008791100087911000879110008F8
:1000C00079110008791100087911000879110008E8
:1000D00079110008791100087911000879110008D8
:1000E000791100087911000879110008000000005A
:1000F0000000000000000000000000000000000000
:0C01000000000000000000005FF808F1A3
:10010C0010B5054C237833B9044B13B10448AFF345
:10011C0000800123237010BD180000200000000097
:10012C006426000808B5034B1BB103490348AFF321
:10013C00008008BD000000001C00002064260008A0
:10014C0080B582B000AF0346FB71FB7903F001036D
:10015C00DBB21A461021144801F00FFBFB795B0847
:10016C00DBB203F00103DBB21A4620210E4801F08A
:10017C0004FBFB799B08DBB203F00103DBB21A46EC
:10018C004021094801F0F9FAFB79DB08DBB203F0F6
:10019C000103DBB21A468021034801F0EEFA00BFDE
:1001AC000837BD4680BD00BF0008014080B500AFD8
:1001BC0001220221074801F0E0FA052001F03AF88B
:1001CC0000220221034801F0D8FA052001F032F890
:1001DC0000BF80BD0008014080B582B000AF03466F
:1001EC00FB71002201210C4801F0C7FAFB791B09B5
:1001FC00DBB21846FFF7A4FFFFF7D8FFFB7903F03B
:10020C000F03DBB21846FFF79BFFFFF7CFFF00BFD2
:10021C000837BD4680BD00BF0008014080B582B0E4
:10022C0000AF0346FB71012201210C4801F0A5FA35
:10023C00FB791B09DBB21846FFF782FFFFF7B6FF0D
:10024C00FB7903F00F03DBB21846FFF779FFFFF7DA
:10025C00ADFF00BF0837BD4680BD00BF00080140A0
:10026C0080B500AF642000F0E5FF0220FFF7B4FF7B
:10027C002820FFF7B1FF0C20FFF7AEFF0620FFF799
:10028C00ABFF0120FFF7A8FF0A2000F0D3FF00BF4F
:10029C0080BD80B582B000AF786006E07B685A1CE8
:1002AC007A601B781846FFF7B9FF7B681B78002B28
:1002BC00F4D100BF00BF0837BD4680BD80B500AF8C
:1002CC000120FFF789FF0A2000F0B4FF00BF80BDBA
:1002DC0080B584B000AF03460A46FB711346BB7170
:1002EC00FB79002B02D1BB79FB7302E0BB79403365
:1002FC00FB73FB7B63F07F03DBB21846FFF76CFFED
:10030C0000BF1037BD4680BD80B500AF0F20FFF792
:10031C0063FF00BF80BD80B500AF0C20FFF75CFF12
:10032C0000BF80BD80B487B000AFF860B9601346E1
:10033C00FB800023FB820CE0FA8AFB68134419460D
:10034C00FB8ABA6813440A78D2B21A70FB8A01335A
:10035C00FB82FA8AFB889A42EED300BF00BF1C379F
:10036C00BD4680BC7047000080B500AF00F000FFB8
:10037C00062207490420FFF7D5FF00F00BF800F028
:10038C00B3F800F04DF800F01DF900F06DFBFCE740
:10039C003C00002080B590B000AF07F11803282274
:1003AC000021184602F02CF93B1D00221A605A60FD
:1003BC009A60DA601A610123BB614FF48033FB61F0
:1003CC0000233B620123BB6202237B634FF4803327
:1003DC00BB634FF4E013FB6307F11803184601F0FD
:1003EC00E5F90346002B01D000F016FE0F237B60CD
:1003FC000223BB600023FB604FF480633B6100234E
:10040C007B613B1D0221184601F052FC0346002B78
:10041C0001D000F001FE00BF4037BD4680BD00009A
:10042C0080B58CB000AF07F1200300221A605A602F
:10043C009A60DA6007F10C0300221A605A609A6025
:10044C00DA601A613B1D00221A605A60254B4FF08E
:10045C0080421A60234B00225A60224B00229A6081
:10046C00204B4FF6FF72DA601E4B00221A611D4BB7
:10047C0000229A611B4801F077FD0346002B01D046
:10048C0000F0CAFD4FF480533B6207F1200319467C
:10049C00144801F0B8FD0346002B01D000F0BCFD60
:1004AC000023FB6020233B6107F10C0319460D4828
:1004BC0001F070FE0346002B01D000F0ADFD0023CF
:1004CC007B600023BB603B1D1946064802F03AF8DE
:1004DC000346002B01D000F09FFD00BF3037BD4616
:1004EC0080BD00BF4C00002080B588B000AF07F184
:1004FC00100300221A605A609A60DA602E4B9B69D6
:10050C002D4A43F0200393612B4B9B6903F020038E
:10051C00FB60FB68284B9B69274A43F004039361FB
:10052C00254B9B6903F00403BB60BB68224B9B69A2
:10053C00214A43F0080393611F4B9B6903F00803A6
:10054C007B607B68002248F2FF011C4801F015F922
:10055C00002240F60F711A4801F00FF948F2FF0320
:10056C003B6101237B610023BB610223FB6107F12B
:10057C0010031946114800F065FF40F60F733B61FC
:10058C0001237B610023BB610223FB6107F1100394
:10059C0019460B4800F056FFF0233B6100237B61AA
:1005AC000123BB6107F110031946054800F04AFF0F
:1005BC0000BF2037BD4680BD00100240000801403E
:1005CC00000C014080B500AFFFF778FE164B0122FE
:1005DC001A70164B09221A70FFF742FE04210020F4
:1005EC00FFF776FE1248FFF754FE322000F022FE91
:1005FC0000210120FFF76CFE0E48FFF74AFE09218F
:10060C000120FFF765FEFFF77FFE0B4B00221A70EF
:10061C00054B01221A70054B09221A70074B002258
:10062C001A7000BF80BD00BF06000020070000202C
:10063C007C26000888260008420000204600002086
:10064C0080B483B000AF7860134B1B78052B1ED899
:10065C00114B1B781A467B68D9B2104B9954104B2E
:10066C001B68002B0DD00C4B1B781A467B68D9B23B
:10067C000C4B9954084B1B78052B02D1084B0022CC
:10068C001A60054B1B780133DAB2034B1A7000BFAA
:10069C000C37BD4680BC704742000020340000205F
:1006AC00480000200000002080B500AF124B012252
:1006BC001A70124B00221A70FFF700FE1048FFF759
:1006CC00E8FDFFF728FE4FF47A7000F0B3FDFFF75A
:1006DC00F5FD01210020FFF7FBFD0A48FFF7D9FDCE
:1006EC0000210120FFF7F4FD0748FFF7D2FDFFF7CB
:1006FC000BFE00BF80BD00BF460000204200002062
:10070C0094260008A0260008B026000880B500AF8B
:10071C00FFF7CAFF034B01221A70034B02221A7017
:10072C0000BF80BD060000200700002080B582B00D
:10073C0000AF314B01221A7000237B601FE02F4A5F
:10074C007B6813441A782E497B680B441B789A42B9
:10075C0003D0294B00221A7014E02A4B1B78042B6F
:10076C0003D9284B1B78062B03D9234B00221A7074
:10077C0008E0214B01221A707B6801337B607B6897
:10078C00052BDCDD1C4B1B78012B18D0FFF796FDDD
:10079C0001210020FFF79CFD1B48FFF77AFD01218A
:1007AC000120FFF795FD1948FFF773FDFFF7B3FD27
:1007BC0040F2DC5000F03EFDFFF7A8FF18E0FFF719
:1007CC007DFD01210020FFF783FD1148FFF761FD3E
:1007DC0000210120FFF77CFD0E48FFF75AFD0E4B60
:1007EC0001221A700D4B02221A700D4B01221A6055
:1007FC0000BF0837BD4680BD45000020000000202A
:10080C003400002042000020B4260008BC2600085A
:10081C00CC260008B02600080600002007000020A7
:10082C004800002080B500AFFFF748FD01210020F3
:10083C00FFF74EFD0A48FFF72CFD4FF4967000F0C1
:10084C00F9FCFFF73BFD01210020FFF741FD0548B6
:10085C00FFF71FFD4FF4967000F0ECFC00BF80BD5D
:10086C0094260008DC26000880B582B000AF724BDD
:10087C0001221A7000237B601CE0704A7B681344D1
:10088C001A786F497B680B441B789A4203D06A4BE9
:10089C0000221A7011E06B4B1B78042B03D9694BA7
:1008AC001B78062B03D9644B00221A7005E07B6879
:1008BC0001337B607B68052BDFDD5F4B1B78012BE5
:1008CC004CD0FFF7FBFC01224FF400615E4800F0B6
:1008DC0054FF012204215D4800F04FFF4FF4FA70E1
:1008EC0000F0A8FC00220421584800F046FF052126
:1008FC000020FFF7EDFC5648FFF7CBFC012101204F
:10090C00FFF7E6FC5348FFF7C4FCFFF704FD4FF478
:10091C007A7000F08FFC00224FF400614A4800F01E
:10092C002CFF4D4B1B78013BDAB24B4B1A704A4BE8
:10093C001B78002B0FD1FFF7C1FC00210020FFF723
:10094C00C7FC4648FFF7A5FC47F2305000F072FC9C
:10095C00414B03221A70FFF735FE68E001224FF479
:10096C008061394800F009FF01220421374800F06A
:10097C0004FF642000F05EFC00220421334800F0E8
:10098C00FCFE642000F056FC012204212F4800F0EC
:10099C00F4FE642000F04EFC002204212B4800F0F1
:1009AC00ECFE642000F046FC01220421274800F0F4
:1009BC00E4FE642000F03EFC00220421234800F0F9
:1009CC00DCFE642000F036FC012204211F4800F0FC
:1009DC00D4FE642000F02EFC002204211B4800F001
:1009EC00CCFEFFF76BFC02210020FFF771FC1C48CA
:1009FC00FFF74FFC03210120FFF76AFC1948FFF7B2
:100A0C0048FCFFF788FC114B08221A6141F2707008
:100A1C0000F010FC0D4B4FF400221A610A4B4FF002
:100A2C0080621A610C4B03221A70FFF7CBFD00BFDA
:100A3C000837BD4680BD00BF4400002000000020E8
:100A4C003400002042000020000C0140000801404E
:100A5C00EC260008F42600080800002004270008F3
:100A6C00142700082427000880B500AF012240F2AB
:100A7C000B11B64800F081FE00220121B34800F0B2
:100A8C007CFE01224FF48571B04800F076FE1021F7
:100A9C00AE4800F05BFE0346002B24D1822000F010
:100AAC00C9FB1021A94800F051FE0346002B1AD1B6
:100ABC00A74B1B78A74A127811461846FFF708FC7B
:100ACC00FFF722FCA448FFF7E4FBA44B07221A70A3
:100ADC00A24B1B781846FFF7B3FD9E4B1B780133D6
:100AEC00DAB29C4B1A702021984800F02FFE034676
:100AFC00002B24D1822000F09DFB2021934800F094
:100B0C0025FE0346002B1AD1914B1B78914A127883
:100B1C0011461846FFF7DCFBFFF7F6FB9048FFF792
:100B2C00B8FB8E4B04221A708C4B1B781846FFF7BF
:100B3C0087FD884B1B780133DAB2864B1A70402143
:100B4C00824800F003FE0346002B24D1642000F001
:100B5C0071FB40217D4800F0F9FD0346002B1AD1B2
:100B6C007B4B1B787B4A127811461846FFF7B0FB7B
:100B7C00FFF7CAFB7B48FFF78CFB784B01221A70FE
:100B8C00764B1B781846FFF75BFD724B1B780133D5
:100B9C00DAB2704B1A7080216C4800F0D7FD034616
:100BAC00002B1CD1822000F045FB8021674800F00F
:100BBC00CDFD0346002B12D1654B1B78654A12788C
:100BCC0011461846FFF784FBFFF79EFB6648FFF7BC
:100BDC0060FB604B1B780133DAB25E4B1A7000225B
:100BEC0002215A4800F0C9FD012240F20911574870
:100BFC0000F0C3FD1021554800F0A8FD0346002B62
:100C0C0024D1822000F016FB1021504800F09EFDEC
:100C1C000346002B1AD14E4B1B784E4A12781146C4
:100C2C001846FFF755FBFFF76FFB5048FFF731FBFA
:100C3C004A4B08221A70494B1B781846FFF700FDE7
:100C4C00444B1B780133DAB2424B1A7020213F48D7
:100C5C0000F07CFD0346002B24D1822000F0EAFA40
:100C6C0020213A4800F072FD0346002B1AD1384B74
:100C7C001B78384A127811461846FFF729FBFFF704
:100C8C0043FB3B48FFF705FB344B05221A70334BF3
:100C9C001B781846FFF7D4FC2E4B1B780133DAB2C5
:100CAC002C4B1A704021294800F050FD0346002BB4
:100CBC0024D1822000F0BEFA4021244800F046FDE9
:100CCC000346002B1AD1224B1B78224A127811466C
:100CDC001846FFF7FDFAFFF717FB2648FFF7D9FA7E
:100CEC001E4B02221A701D4B1B781846FFF7A8FCEE
:100CFC00184B1B780133DAB2164B1A70802113484B
:100D0C0000F024FD0346002B3ED1642000F092FA43
:100D1C0080210E4800F01AFD0346002B34D10C4BF9
:100D2C001B780C4A127811461846FFF7D1FAFFF7D8
:100D3C00EBFA1148FFF7ADFA084B00221A70074B7B
:100D4C001B781846FFF77CFC18E000BF000C014034
:100D5C000600002007000020302700084300002078
:100D6C0034270008382700083C27000840270008D3
:100D7C0044270008482700084C2700089B4B1B7889
:100D8C000133DAB2994B1A7000224FF480719848F3
:100D9C0000F0F3FC01220B21954800F0EEFC102131
:100DAC00934800F0D3FC0346002B21D1102190482E
:100DBC0000F0CCFC0346002B1AD18E4B1B788B4ACF
:100DCC00127811461846FFF783FAFFF79DFA8A4806
:100DDC00FFF75FFA894B09221A70884B1B7818466B
:100DEC00FFF72EFC814B1B780133DAB27F4B1A7064
:100DFC0020217F4800F0AAFC0346002B24D182203E
:100E0C0000F018FA20217A4800F0A0FC0346002BD1
:100E1C001AD1784B1B78754A127811461846FFF791
:100E2C0057FAFFF771FA7648FFF733FA734B06223D
:100E3C001A70724B1B781846FFF702FC6B4B1B7831
:100E4C000133DAB2694B1A704021694800F07EFC1C
:100E5C000346002B24D1822000F0ECF94021644899
:100E6C0000F074FC0346002B1AD1624B1B785F4ACE
:100E7C00127811461846FFF72BFAFFF745FA61482E
:100E8C00FFF707FA5D4B03221A705C4B1B78184670
:100E9C00FFF7D6FB554B1B780133DAB2534B1A7064
:100EAC008021534800F052FC0346002B1CD18220B9
:100EBC0000F0C0F980214E4800F048FC0346002B9E
:100ECC0012D14C4B1B78494A127811461846FFF741
:100EDC00FFF9FFF719FA4C48FFF7DBF9434B1B7886
:100EEC000133DAB2414B1A7000220821404800F05D
:100EFC0044FC012240F203113D4800F03EFC10215D
:100F0C003B4800F023FC0346002B1BD1822000F051
:100F1C0091F91021364800F019FC0346002B11D131
:100F2C003A4B1B78002B01D1FFF79EFC374B1B78FB
:100F3C00012B01D1FFF7FAFB344B1B78032B01D1AA
:100F4C00FFF770FC20212A4800F000FC0346002B20
:100F5C0022D1822000F06EF92021254800F0F6FB0A
:100F6C000346002B18D1214B1B78013BDAB21F4BE7
:100F7C001A70FFF7C9F92648FFF78BF91D4B1B7840
:100F8C001A4A127811461846FFF7A2F9214B1B7822
:100F9C00013BDAB21F4B1A704021154800F0D6FB0A
:100FAC000346002B0BD1822000F044F9402110485D
:100FBC0000F0CCFB0346002B01D1FFF7A7FB8021EF
:100FCC000B4800F0C3FB0346002B0BD1822000F032
:100FDC0031F98021064800F0B9FB0346002B01D102
:100FEC00FFF7F0FA054B1B78184680BD0700002070
:100FFC00000C014006000020502700084300002090
:10100C0054270008582700085C27000846000020D9
:10101C00602700084200002080B400AF72B600BF09
:10102C0000BFFDE780B485B000AF154B9B69144A37
:10103C0043F001039361124B9B6903F00103BB6006
:10104C00BB680F4BDB690E4A43F08053D3610C4BEA
:10105C00DB6903F080537B607B680A4B5B68FB6049
:10106C00FB6823F0E063FB60FB6843F00073FB60FC
:10107C00044AFB68536000BF1437BD4680BC704700
:10108C00001002400000014080B485B000AF7860D1
:10109C007B681B68B3F1804F0BD1084BDB69074AA7
:1010AC0043F00103D361054BDB6903F00103FB60E3
:1010BC00FB6800BF1437BD4680BC7047001002406F
:1010CC0080B400AF00BFFDE780B400AF00BFFDE708
:1010DC0080B400AF00BFFDE780B400AF00BFFDE7F8
:1010EC0080B400AF00BFFDE780B400AF00BFBD46C9
:1010FC0080BC704780B400AF00BFBD4680BC704759
:10110C0080B400AF00BFBD4680BC704780B500AF57
:10111C0000F074F800BF80BD80B400AF00BFBD46C6
:10112C0080BC7047FFF7F8FF0B480C490C4A0023B2
:10113C0002E0D458C4500433C4188C42F9D3094A81
:10114C00094C002301E013600432A242FBD301F0EE
:10115C005FFAFFF709F97047000000201800002023
:10116C00902700081800002098000020FEE70000DF
:10117C0080B500AF084B1B68074A43F0100313609F
:10118C00032000F02BF90F2000F008F8FFF74AFFBE
:10119C000023184680BD00BF0020024080B582B0FD
:1011AC0000AF7860124B1A68124B1B7819464FF43B
:1011BC007A73B3FBF1F3B2FBF3F3184600F035F995
:1011CC000346002B01D001230EE07B680F2B0AD8BD
:1011DC00002279684FF0FF3000F00BF9064A7B686B
:1011EC001360002300E0012318460837BD4680BD7C
:1011FC000C000020140000201000002080B400AF70
:10120C00054B1B781A46054B1B681344034A1360A5
:10121C0000BFBD4680BC7047140000209400002025
:10122C0080B400AF024B1B681846BD4680BC7047AB
:10123C009400002080B584B000AF7860FFF7F0FF19
:10124C00B8607B68FB60FB68B3F1FF3F05D00A4BCD
:10125C001B781A46FB681344FB6000BFFFF7E0FFE6
:10126C000246BB68D31AFA689A42F7D800BF00BF8F
:10127C001037BD4680BD00BF1400002080B485B07F
:10128C0000AF78607B6803F00703FB600C4BDB68F6
:10129C00BB60BA684FF6FF031340BB60FB681A02D1
:1012AC00BB68134343F0BF6343F40033BB60044A91
:1012BC00BB68D36000BF1437BD4680BC704700BF0D
:1012CC0000ED00E080B400AF044BDB681B0A03F0B8
:1012DC0007031846BD4680BC704700BF00ED00E018
:1012EC0080B483B000AF03463960FB7197F90730C7
:1012FC00002B0ADB3B68DAB20C4997F90730120174
:10130C00D2B20B4483F800230AE03B68DAB20849F6
:10131C00FB7903F00F03043B1201D2B20B441A7693
:10132C0000BF0C37BD4680BC704700BF00E100E039
:10133C0000ED00E080B489B000AFF860B9607A606D
:10134C00FB6803F00703FB61FB69C3F10703042B84
:10135C0028BF0423BB61FB690433062B02D9FB694C
:10136C00033B00E000237B614FF0FF32BB6902FAC4
:10137C0003F3DA43BB681A407B699A404FF0FF31A4
:10138C007B6901FA03F3D9437B680B40134318467E
:10139C002437BD4680BC704780B582B000AF786002
:1013AC007B68013BB3F1807F01D301230FE00A4A34
:1013BC007B68013B53600F214FF0FF30FFF790FF2C
:1013CC00054B00229A60044B07221A600023184632
:1013DC000837BD4680BD00BF10E000E080B582B08C
:1013EC0000AF78607868FFF749FF00BF0837BD464B
:1013FC0080BD80B586B000AF0346B9607A60FB73E0
:10140C0000237B61FFF75EFF78617A68B9687869C1
:10141C00FFF790FF024697F90F3011461846FFF779
:10142C005FFF00BF1837BD4680BD80B582B000AFEE
:10143C0078607868FFF7B0FF034618460837BD465A
:10144C0080BD000080B48BB000AF786039600023A1
:10145C007B6200233B6269E101227B6A02FA03F39F
:10146C00FB613B681B68FA691340BB61BA69FB6995
:10147C009A4240F058813B685B689A4A93425ED02E
:10148C00984A934275D8984A934258D0964A9342B8
:10149C006FD8964A934252D0944A934269D8944A50
:1014AC0093424CD0924A934263D8924A934246D08C
:1014BC00904A93425DD8122B2AD8122B59D801A2EC
:1014CC0052F823F04B1500082515000837150008B5
:1014DC00791500087F1500087F1500087F15000896
:1014EC007F1500087F1500087F1500087F15000880
:1014FC007F1500087F1500087F1500087F15000870
:10150C007F1500087F1500082D15000841150008EF
:10151C00794A934213D02CE03B68DB683B6229E0AC
:10152C003B68DB6804333B6224E03B68DB680833D0
:10153C003B621FE03B68DB680C333B621AE03B68A4
:10154C009B68002B02D104233B6213E03B689B6831
:10155C00012B05D108233B627B68FA691A6109E00B
:10156C0008233B627B68FA695A6103E000233B6203
:10157C0000E000BFBB69FF2B01D87B6801E07B68F2
:10158C0004337B61BB69FF2B02D87B6A9B0002E0B2
:10159C007B6A083B9B003B617B691A680F213B69A6
:1015AC0001FA03F3DB431A40396A3B6901FA03F38E
:1015BC001A437B691A603B685B6803F08053002B0D
:1015CC0000F0B1804D4B9B694C4A43F00103936191
:1015DC004A4B9B6903F00103BB60BB68484A7B6ABA
:1015EC009B08023352F82330FB607B6A03F0030341
:1015FC009B000F2202FA03F3DB43FA681340FB60F3
:10160C007B68404A934213D07B683F4A93420DD08B
:10161C007B683E4A934207D07B683D4A934201D196
:10162C00032306E0042304E0022302E0012300E08C
:10163C0000237A6A02F0030292009340FA68134383
:10164C00FB602F497B6A9B080233FA6841F8232020
:10165C003B685B6803F48013002B06D02D4B9A6813
:10166C002C49BB6913438B6006E02A4B9A68BB6913
:10167C00DB43284913408B603B685B6803F4001321
:10168C00002B06D0234BDA682249BB691343CB608D
:10169C0006E0204BDA68BB69DB431E491340CB6084
:1016AC003B685B6803F40033002B06D0194B5A6877
:1016BC001849BB6913434B6006E0164B5A68BB696B
:1016CC00DB43144913404B603B685B6803F4803385
:1016DC00002B21D00F4B1A680E49BB6913430B60CA
:1016EC0021E000BF00003210000031100000221079
:1016FC000000211000001210000011100010024018
:10170C000000014000080140000C014000100140A5
:10171C0000140140000401400B4B1A68BB69DB4309
:10172C00094913400B607B6A01337B623B681A6882
:10173C007B6A22FA03F3002B7FF48EAE00BF00BF4E
:10174C002C37BD4680BC70470004014080B485B086
:10175C0000AF78600B467B807B689A687B8813406F
:10176C00002B02D00123FB7301E00023FB73FB7BF6
:10177C0018461437BD4680BC704780B483B000AFA8
:10178C0078600B467B8013467B707B78002B03D0F4
:10179C007A887B681A6103E07B881A047B681A617B
:1017AC0000BF0C37BD4680BC7047000080B586B0CA
:1017BC0000AF78607B68002B01D1012372E27B685B
:1017CC001B6803F00103002B00F08780924B5B68D1
:1017DC0003F00C03042B0CD08F4B5B6803F00C0351
:1017EC00082B12D18C4B5B6803F48033B3F5803F2C
:1017FC000BD1894B1B6803F40033002B6CD07B6836
:10180C005B68002B68D101234CE27B685B68B3F505
:10181C00803F06D1804B1B687F4A43F480331360B2
:10182C002EE07B685B68002B0CD17B4B1B687A4AE3
:10183C0023F480331360784B1B68774A23F480239E
:10184C0013601DE07B685B68B3F5A02F0CD1724B65
:10185C001B68714A43F4802313606F4B1B686E4AFC
:10186C0043F4803313600BE06B4B1B686A4A23F420
:10187C0080331360684B1B68674A23F48023136022
:10188C007B685B68002B13D0FFF7CAFC386108E05B
:10189C00FFF7C6FC02463B69D31A642B01D903231C
:1018AC0000E25D4B1B6803F40033002BF0D014E016
:1018BC00FFF7B6FC386108E0FFF7B2FC02463B6963
:1018CC00D31A642B01D90323ECE1534B1B6803F4AB
:1018DC000033002BF0D100E000BF7B681B6803F0E5
:1018EC000203002B63D04C4B5B6803F00C03002B02
:1018FC000BD0494B5B6803F00C03082B1CD1464BF7
:10190C005B6803F48033002B16D1434B1B6803F048
:10191C000203002B05D07B681B69012B01D001232E
:10192C00C0E13D4B1B6823F0F8027B685B69DB0070
:10193C00394913430B603AE07B681B69002B20D0BC
:10194C00364B01221A60FFF76BFC386108E0FFF799
:10195C0067FC02463B69D31A022B01D90323A1E190
:10196C002D4B1B6803F00203002BF0D02A4B1B6895
:10197C0023F0F8027B685B69DB00274913430B609B
:10198C0015E0264B00221A60FFF74AFC386108E08C
:10199C00FFF746FC02463B69D31A022B01D90323FD
:1019AC0080E11D4B1B6803F00203002BF0D17B6818
:1019BC001B6803F00803002B3AD07B689B69002B53
:1019CC0019D0174B01221A60FFF72AFC386108E086
:1019DC00FFF726FC02463B69D31A022B01D90323DD
:1019EC0060E10D4B5B6A03F00203002BF0D0012089
:1019FC0000F09CFA1CE00A4B00221A60FFF710FC66
:101A0C0038610FE0FFF70CFC02463B69D31A022B3E
:101A1C0008D9032346E100BF0010024000004242F7
:101A2C0080044242924B5B6A03F00203002BE9D123
:101A3C007B681B6803F00403002B00F0A6800023D6
:101A4C00FB758B4BDB6903F08053002B0DD1884B5E
:101A5C00DB69874A43F08053D361854BDB6903F024
:101A6C008053BB60BB680123FB75824B1B6803F47E
:101A7C008073002B18D17F4B1B687E4A43F4807314
:101A8C001360FFF7CDFB386108E0FFF7C9FB024696
:101A9C003B69D31A642B01D9032303E1754B1B68F3
:101AAC0003F48073002BF0D07B68DB68012B06D12C
:101ABC006F4B1B6A6E4A43F0010313622DE07B6887
:101ACC00DB68002B0CD16A4B1B6A694A23F00103BB
:101ADC001362674B1B6A664A23F0040313621CE013
:101AEC007B68DB68052B0CD1614B1B6A604A43F0A9
:101AFC00040313625E4B1B6A5D4A43F001031362DD
:101B0C000BE05B4B1B6A5A4A23F001031362584BE0
:101B1C001B6A574A23F0040313627B68DB68002BB3
:101B2C0015D0FFF77DFB38610AE0FFF779FB024621
:101B3C003B69D31A41F28832934201D90323B1E0B5
:101B4C004B4B1B6A03F00203002BEED014E0FFF7A3
:101B5C0067FB38610AE0FFF763FB02463B69D31A67
:101B6C0041F28832934201D903239BE0404B1B6A1C
:101B7C0003F00203002BEED1FB7D012B05D13C4B76
:101B8C00DB693B4A23F08053D3617B68DB69002B14
:101B9C0000F08780364B5B6803F00C03082B61D098
:101BAC007B68DB69022B46D1334B00221A60FFF7AE
:101BBC0037FB386108E0FFF733FB02463B69D31A69
:101BCC00022B01D903236DE0294B1B6803F0007332
:101BDC00002BF0D17B681B6AB3F5803F08D1244BF6
:101BEC005B6823F400327B689B68214913434B608C
:101BFC001F4B5B6823F474127B68196A7B685B6A01
:101C0C000B431B4913434B601B4B01221A60FFF71C
:101C1C0007FB386108E0FFF703FB02463B69D31A68
:101C2C00022B01D903233DE0114B1B6803F0007319
:101C3C00002BF0D035E0104B00221A60FFF7F0FAC1
:101C4C00386108E0FFF7ECFA02463B69D31A022B25
:101C5C0001D9032326E0064B1B6803F00073002B0D
:101C6C00F0D11EE07B68DB69012B07D1012319E061
:101C7C000010024000700040600042420B4B5B6859
:101C8C00FB60FB6803F480327B681B6A9A4206D1C6
:101C9C00FB6803F470127B685B6A9A4201D00123E3
:101CAC0000E0002318461837BD4680BD00100240E6
:101CBC0080B584B000AF786039607B68002B01D1AF
:101CCC000123D0E06A4B1B6803F007033A689A4281
:101CDC0010D9674B1B6823F0070265493B68134317
:101CEC000B60634B1B6803F007033A689A4201D000
:101CFC000123B8E07B681B6803F00203002B20D0A3
:101D0C007B681B6803F00403002B05D0594B5B6800
:101D1C00584A43F4E06353607B681B6803F0080384
:101D2C00002B05D0534B5B68524A43F4605353600D
:101D3C00504B5B6823F0F0027B689B684D49134362
:101D4C004B607B681B6803F00103002B40D07B6861
:101D5C005B68012B07D1474B1B6803F40033002B46
:101D6C0015D101237FE07B685B68022B07D1414BC7
:101D7C001B6803F00073002B09D1012373E03D4B6A
:101D8C001B6803F00203002B01D101236BE0394BDC
:101D9C005B6823F003027B685B68364913434B6036
:101DAC00FFF73EFAF8600AE0FFF73AFA0246FB68E2
:101DBC00D31A41F28832934201D9032353E02D4BBD
:101DCC005B6803F00C027B685B689B009A42EBD16A
:101DDC00274B1B6803F007033A689A4210D2244B36
:101DEC001B6823F0070222493B6813430B60204B0E
:101DFC001B6803F007033A689A4201D0012332E0D2
:101E0C007B681B6803F00403002B08D0194B5B683C
:101E1C0023F4E0627B68DB68164913434B607B68F4
:101E2C001B6803F00803002B09D0124B5B6823F4EA
:101E3C0060527B681B69DB000E4913434B6000F05A
:101E4C0021F802460B4B5B681B0903F00F030A4990
:101E5C00CB5C22FA03F3094A1360094B1B68184642
:101E6C00FFF79CF9002318461037BD4680BD00BF14
:101E7C000020024000100240642700080C000020E3
:101E8C001000002080B487B000AF0023FB6000235B
:101E9C00BB6000237B6100237B6000233B611E4BF6
:101EAC005B68FB60FB6803F00C03042B02D0082B6F
:101EBC0003D027E0194B3B6127E0FB689B0C03F038
:101ECC000F03174AD35C7B60FB6803F48033002B51
:101EDC0010D0114B5B685B0C03F00103114AD35C0F
:101EEC00BB607B680D4A03FB02F2BB68B2FBF3F3E9
:101EFC007B6104E07B680C4A02FB03F37B617B692A
:101F0C003B6102E0054B3B6100BF3B6918461C3747
:101F1C00BD4680BC704700BF0010024000127A0022
:101F2C00742700088427000800093D0080B485B0A0
:101F3C0000AF78600A4B1B680A4AA2FB03235B0ABA
:101F4C007A6802FB03F3FB6000BFFB685A1EFA6061
:101F5C00002BF9D100BF00BF1437BD4680BC7047C1
:101F6C000C000020D34D621080B582B000AF7860B9
:101F7C007B68002B01D1012341E07B6893F83D3055
:101F8C00DBB2002B06D17B68002283F83C207868FA
:101F9C00FFF77AF87B68022283F83D207B681A6889
:101FAC007B6804331946104600F036F97B68012231
:101FBC0083F846207B68012283F83E207B6801224F
:101FCC0083F83F207B68012283F840207B68012244
:101FDC0083F841207B68012283F842207B68012230
:101FEC0083F843207B68012283F844207B6801221C
:101FFC0083F845207B68012283F83D200023184696
:10200C000837BD4680BD80B584B000AF78603960BC
:10201C000023FB737B6893F83C30012B01D1022326
:10202C00B4E07B68012283F83C207B68022283F8B1
:10203C003D207B681B689B68BB60BB6823F0770303
:10204C00BB60BB6823F47F43BB607B681B68BA68CA
:10205C009A603B681B68B3F5005F3ED0B3F5005F38
:10206C0000F28780B3F5805F00F08680B3F5805F67
:10207C007FD8702B1AD0702B7BD8602B50D0602B54
:10208C0077D8502B3CD0502B73D8402B58D0402BAA
:10209C006FD8302B64D0302B6BD8202B60D0202BFA
:1020AC0067D8002B5CD0102B5AD062E07B68186884
:1020BC003B6899683B685A683B68DB6800F022FA19
:1020CC007B681B689B68BB60BB6843F07703BB6095
:1020DC007B681B68BA689A604FE07B6818683B683D
:1020EC0099683B685A683B68DB6800F00BFA7B68C0
:1020FC001B689A687B681B6842F480429A603CE0DB
:10210C007B6818683B6859683B68DB681A4600F0C6
:10211C0082F97B681B685021184600F0D9F92CE035
:10212C007B6818683B6859683B68DB681A4600F0A6
:10213C00A0F97B681B686021184600F0C9F91CE007
:10214C007B6818683B6859683B68DB681A4600F086
:10215C0062F97B681B684021184600F0B9F90CE065
:10216C007B681A683B681B681946104600F0B0F98A
:10217C0003E00123FB7300E000BF7B68012283F8BE
:10218C003D207B68002283F83C20FB7B18461037EF
:10219C00BD4680BD80B582B000AF786039607B6889
:1021AC0093F83C30012B01D1022331E07B680122F2
:1021BC0083F83C207B68022283F83D2039687868DC
:1021CC0000F098F80346002B09D07B68012283F8B5
:1021DC003D207B68002283F83C20012318E07B68BB
:1021EC001B68DA687B681B6822F04002DA607B6847
:1021FC001B68DA687B681B6822F48042DA607B68B3
:10220C00012283F83D207B68002283F83C200023C8
:10221C0018460837BD4680BD80B485B000AF7860E5
:10222C0039607B681B68FB607B682F4A93420BD03C
:10223C007B68B3F1804F07D07B682C4A934203D064
:10224C007B682B4A934208D1FB6823F07003FB6038
:10225C003B685B68FA681343FB607B68224A9342D5
:10226C000BD07B68B3F1804F07D07B681F4A934239
:10227C0003D07B681E4A934208D1FB6823F4407359
:10228C00FB603B68DB68FA681343FB60FB6823F078
:10229C0080023B685B691343FB607B68FA681A60D9
:1022AC003B689A687B68DA623B681A687B689A625A
:1022BC007B680D4A934203D13B681A697B681A63A9
:1022CC007B6801225A617B681B6903F00103002BB8
:1022DC0005D07B681B6923F001027B681A6100BF83
:1022EC001437BD4680BC7047002C014000040040F0
:1022FC000008004080B586B000AF786039600023DC
:10230C00FB757B681B689B683B613B6923F0700322
:10231C003B613B685B683A6913433B613B6923F063
:10232C0007033B613B681B683A6913433B617B685D
:10233C001B683A699A603B685B68702B1AD0702BEB
:10234C0060D8602B54D0602B5CD8502B46D0502BCF
:10235C0058D8402B19D0402B54D8302B55D0302B7B
:10236C0050D8202B51D0202B4CD8002B4DD0102BDB
:10237C004BD047E07B6818683B68D9683B689A6823
:10238C003B681B6900F0BEF840E03B681B68052BFE
:10239C0001D101233BE07B681B681B6AFB607B68F7
:1023AC001B681A6A7B681B6822F001021A627B6840
:1023BC001B689B69BB60BB6823F0F003BB603B6888
:1023CC001B691B01BA681343BB607B681B68BA6846
:1023DC009A617B681B68FA681A6217E07B68186858
:1023EC003B6899683B681B691A4600F014F80DE0CD
:1023FC007B6818683B6899683B681B691A4600F053
:10240C0038F803E00123FB7500E000BFFB7D1846A4
:10241C001837BD4680BD80B487B000AFF860B96096
:10242C007A60FB681B6A7B61FB681B6A23F0010204
:10243C00FB681A62FB689B693B613B6923F0F00304
:10244C003B617B681B013A6913433B617B6923F059
:10245C000A037B617A69BB6813437B61FB683A6949
:10246C009A61FB687A691A6200BF1C37BD4680BC52
:10247C00704780B487B000AFF860B9607A60FB68D1
:10248C001B6A7B61FB681B6A23F01002FB681A62F3
:10249C00FB689B693B613B6923F470433B617B6840
:1024AC001B033A6913433B617B6923F0A0037B61F7
:1024BC00BB681B017A6913437B61FB683A699A61BB
:1024CC00FB687A691A6200BF1C37BD4680BC704736
:1024DC0080B485B000AF786039607B689B68FB6026
:1024EC00FB6823F07003FB603A68FB68134343F00E
:1024FC000703FB607B68FA689A6000BF1437BD461F
:10250C0080BC704780B487B000AFF860B9607A6067
:10251C003B60FB689B687B617B6923F47F437B6139
:10252C003B681A027B681A43BB6813437A691343EE
:10253C007B61FB687A699A6000BF1C37BD4680BC22
:10254C007047000080B485B000AF786039607B685C
:10255C0093F83C30012B01D1022346E07B68012229
:10256C0083F83C207B68022283F83D207B681B6843
:10257C005B68FB607B681B689B68BB60FB6823F037
:10258C007003FB603B681B68FA681343FB607B6855
:10259C001B68FA685A607B681B68164A93420ED017
:1025AC007B681B68B3F1804F09D07B681B68124AAB
:1025BC00934204D07B681B68104A93420CD1BB68D1
:1025CC0023F08003BB603B685B68BA681343BB6055
:1025DC007B681B68BA689A607B68012283F83D208F
:1025EC007B68002283F83C20002318461437BD4634
:1025FC0080BC7047002C01400004004000080040E3
:10260C0003460244934200D1704703F8011BF9E7DB
:10261C0070B500260C4D0D4C641BA410A64209D1BC
:10262C0000F01AF800260A4D0A4C641BA410A642AE
:10263C0005D170BD55F8043B98470136EEE755F8C7
:10264C00043B98470136F2E78827000888270008E2
:10265C00882700088C270008F8B500BFF8BC08BC18
:10266C009E467047F8B500BFF8BC08BC9E46704744
:10267C0057454C4C434F4D4521000000504153539E
:10268C00434F44453A00000057616974696E672EE8
:10269C002E2E0000456E746572204F6C64205061C4
:1026AC00737300003D3E000046414C53452C000026
:1026BC00504C4541534520414741494E2021000093
:1026CC00456E746572204E657720506173730000FF
:1026DC0053554345535346554C20212100000000CF
:1026EC004641494C2C000000504C4541534520417B
:1026FC004741494E2100000057414954494E47205B
:10270C00464F522033307300486948692C53554367
:10271C00434553532121000057454C4C434F4D45E5
:10272C00212121003700000034000000310000009E
:10273C002A000000380000003500000032000000C4
:10274C0030000000390000003600000033000000AB
:10275C00230000002000000000000000000000002A
:10276C000102030406070809020304050607080909
:0C277C000A0B0C0D0E0F101001020000E3
:042788003101000813
:04278C000D01000833
:1027900001020304050601090300000000127A008B
:0827A000100000000100000020
:0400000508001131AD
:00000001FF
