:020000040800F2
:10000000005000209D12000839120008411200081B
:10001000491200085112000859120008000000009F
:100020000000000000000000000000006112000855
:100030006D12000800000000791200088512000807
:10004000E5120008E5120008E5120008E5120008B4
:10005000E5120008E5120008E5120008E5120008A4
:10006000E5120008E5120008E5120008E512000894
:10007000E5120008E5120008E5120008E512000884
:10008000E5120008E5120008E5120008E512000874
:10009000E5120008E5120008E5120008E512000864
:1000A000E5120008E5120008E5120008E512000854
:1000B000E5120008E5120008E5120008E512000844
:1000C000E5120008E5120008E5120008E512000834
:1000D000E5120008E5120008E5120008E512000824
:1000E000E5120008E5120008E51200080000000013
:1000F0000000000000000000000000000000000000
:0C01000000000000000000005FF808F1A3
:10010C0010B5054C237833B9044B13B10448AFF345
:10011C0000800123237010BD180000200000000097
:10012C00D02B000808B5034B1BB103490348AFF3B0
:10013C00008008BD000000001C000020D02B00082F
:10014C0080B582B000AF0346FB71FB7903F001036D
:10015C00DBB21A461021144801F0C5FDFB795B088F
:10016C00DBB203F00103DBB21A4620210E4801F08A
:10017C00BAFDFB799B08DBB203F00103DBB21A4634
:10018C004021094801F0AFFDFB79DB08DBB203F03D
:10019C000103DBB21A468021034801F0A4FD00BF25
:1001AC000837BD4680BD00BF0008014080B500AFD8
:1001BC0001220221074801F096FD052001F0F0F81C
:1001CC0000220221034801F08EFD052001F0E8F821
:1001DC0000BF80BD0008014080B582B000AF03466F
:1001EC00FB71002201210C4801F07DFDFB791B09FC
:1001FC00DBB21846FFF7A4FFFFF7D8FFFB7903F03B
:10020C000F03DBB21846FFF79BFFFFF7CFFF00BFD2
:10021C000837BD4680BD00BF0008014080B582B0E4
:10022C0000AF0346FB71012201210C4801F05BFD7C
:10023C00FB791B09DBB21846FFF782FFFFF7B6FF0D
:10024C00FB7903F00F03DBB21846FFF779FFFFF7DA
:10025C00ADFF00BF0837BD4680BD00BF00080140A0
:10026C0080B500AF642001F09BF80220FFF7B4FFCB
:10027C002820FFF7B1FF0C20FFF7AEFF0620FFF799
:10028C00ABFF0120FFF7A8FF0A2001F089F800BF9F
:10029C0080BD80B582B000AF786006E07B685A1CE8
:1002AC007A601B781846FFF7B9FF7B681B78002B28
:1002BC00F4D100BF00BF0837BD4680BD80B500AF8C
:1002CC000120FFF789FF0A2001F06AF800BF80BD0A
:1002DC0080B584B000AF03460A46FB711346BB7170
:1002EC00FB79002B02D1BB79FB7302E0BB79403365
:1002FC00FB73FB7B63F07F03DBB21846FFF76CFFED
:10030C0000BF1037BD4680BD80B500AF0F20FFF792
:10031C0063FF00BF80BD80B500AF0C20FFF75CFF12
:10032C0000BF80BD80B588B000AF786001F0B0F937
:10033C0001237B610123FB617B68BB6100233B6173
:10034C0007F10C0207F110031146184601F088FA68
:10035C0001F0C4F900BF2037BD4680BDB0B582B0F6
:10036C0000AF78600B467B8001F092F97B8800220D
:10037C001C46154622462B467968012001F018F9D7
:10038C0001F0ACF900BF0837BD46B0BD80B483B0F6
:10039C0000AF78607B681B889BB218460C37BD4653
:1003AC0080BC704780B500AF00F098FF00F020F8DB
:1003BC0000F0C8F800F062F80A48FFF7E7FF0346C0
:1003CC00DAB2094B1A70084B1B78FF2B02D0074B83
:1003DC0001221A7000F0BEF900F022F900F0F2FBD5
:1003EC00FCE700BF3C7C00084900002048000020CE
:1003FC0080B590B000AF07F11803282200211846F1
:10040C0002F0B4FB3B1D00221A605A609A60DA605D
:10041C001A610123BB614FF48033FB6100233B6203
:10042C000123BB6202237B634FF48033BB634FF425
:10043C00E013FB6307F11803184601F06DFC03464B
:10044C00002B01D000F09EFE0F237B600223BB60CB
:10045C000023FB604FF480633B6100237B613B1DF9
:10046C000221184601F0DAFE0346002B01D000F001
:10047C0089FE00BF4037BD4680BD000080B58CB002
:10048C0000AF07F1200300221A605A609A60DA600C
:10049C0007F10C0300221A605A609A60DA601A6144
:1004AC003B1D00221A605A60254B4FF080421A60A7
:1004BC00234B00225A60224B00229A60204B4FF6AD
:1004CC00FF72DA601E4B00221A611D4B00229A61EA
:1004DC001B4801F0FFFF0346002B01D000F052FE39
:1004EC004FF480533B6207F120031946144802F085
:1004FC0040F80346002B01D000F044FE0023FB60C3
:10050C0020233B6107F10C0319460D4802F0F8F863
:10051C000346002B01D000F035FE00237B60002346
:10052C00BB603B1D1946064802F0C2FA0346002B7D
:10053C0001D000F027FE00BF3037BD4680BD00BFA4
:10054C004C00002080B588B000AF07F110030022EA
:10055C001A605A609A60DA602E4B9B692D4A43F000
:10056C00200393612B4B9B6903F02003FB60FB681A
:10057C00284B9B69274A43F004039361254B9B69E5
:10058C0003F00403BB60BB68224B9B69214A43F018
:10059C00080393611F4B9B6903F008037B607B6826
:1005AC00002248F2FF011C4801F09DFB002240F69E
:1005BC000F711A4801F097FB48F2FF033B610123CE
:1005CC007B610023BB610223FB6107F11003194619
:1005DC00114801F0EDF940F60F733B6101237B618B
:1005EC000023BB610223FB6107F1100319460B4882
:1005FC0001F0DEF9F0233B6100237B610123BB6139
:10060C0007F110031946054801F0D2F900BF203755
:10061C00BD4680BD0010024000080140000C0140A6
:10062C0080B500AFFFF74AFE164B01221A70164B2D
:10063C0009221A70FFF714FE04210020FFF748FE70
:10064C001248FFF726FE322000F0AAFE00210120FE
:10065C00FFF73EFE0E48FFF71CFE09210120FFF7B5
:10066C0037FEFFF751FE0B4B00221A70054B01228F
:10067C001A70054B09221A70074B00221A7000BF22
:10068C0080BD00BF0600002007000020E82B0008FA
:10069C00F42B0008420000204600002080B582B0F8
:1006AC0000AF7860144B1B78052B20D8124B1B78AD
:1006BC001A467B68D9B2114B9954114B1B78002BFD
:1006CC000FD00D4B1B781A467B68D9B20D4B995441
:1006DC00094B1B78052B04D100F016F8084B0022AF
:1006EC001A70054B1B780133DAB2034B1A7000BF3A
:1006FC000837BD4680BD00BF4200002034000020FA
:10070C00470000203C00002080B582B000AF0E48AE
:10071C00FFF708FE00237B600EE07A680B4B134456
:10072C005B0018460A4A7B6813441B781946FFF78E
:10073C0015FE7B6801337B607B68052BEDDD00BF0C
:10074C0000BF0837BD4680BD3C7C00081E3E00043F
:10075C003C00002080B582B000AF00237B6010E02D
:10076C007A680C4B13445B001846FFF70FFE0346E8
:10077C00D9B2094A7B6813440A461A707B68013364
:10078C007B607B68052BEBDD00BF00BF0837BD46E7
:10079C0080BD00BF1E3E00043C00002080B500AFB1
:1007AC00124B01221A70124B00221A70FFF786FDB1
:1007BC001048FFF76EFDFFF7AEFD4FF47A7000F0B6
:1007CC00EFFDFFF77BFD01210020FFF781FD0A48BB
:1007DC00FFF75FFD00210120FFF77AFD0748FFF7C7
:1007EC0058FDFFF791FD00BF80BD00BF4600002003
:1007FC0042000020002C00080C2C00081C2C0008C7
:10080C0080B500AFFFF7CAFF034B01221A70034BF0
:10081C0002221A7000BF80BD0600002007000020D5
:10082C0080B582B000AF484B01221A70474B1B7841
:10083C00012B26D100237B601FE0454A7B681344C3
:10084C001A7844497B680B441B789A4203D03E4B80
:10085C0000221A703BE0404B1B78042B03D93E4B13
:10086C001B78062B03D9384B00221A702FE0364B1D
:10087C0001221A707B6801337B607B68052BDCDD01
:10088C0025E000233B601FE0344A3B6813441A7890
:10089C0030493B680B441B789A4203D02A4B002208
:1008AC001A7014E02C4B1B78042B03D92A4B1B78A1
:1008BC00062B03D9244B00221A7008E0224B01228C
:1008CC001A703B6801333B603B68052BDCDD1E4B2B
:1008DC001B78012B18D0FFF7F1FC01210020FFF74A
:1008EC00F7FC1F48FFF7D5FC01210120FFF7F0FCB6
:1008FC001C48FFF7CEFCFFF70EFD40F2DC5000F079
:10090C004FFDFFF77DFF1BE0FFF7D8FC0121002016
:10091C00FFF7DEFC1448FFF7BCFC00210120FFF7B9
:10092C00D7FC1248FFF7B5FC114B01221A70114B82
:10093C0002221A70084B00221A700F4B01221A70F7
:10094C0000BF0837BD4680BD450000204800002090
:10095C003C00002034000020420000200000002059
:10096C00202C0008282C0008382C00081C2C00080F
:10097C0006000020070000204700002080B500AFD3
:10098C00FFF79CFC01210020FFF7A2FC0748FFF7B2
:10099C0080FC01210120FFF79BFC0548FFF779FC47
:1009AC004FF4967000F0FCFC00BF80BD482C000892
:1009BC00542C000880B584B000AF744B01221A701F
:1009CC00734B1B78012B23D10023FB601CE0714A75
:1009DC00FB6813441A787049FB680B441B789A42E5
:1009EC0003D06A4B00221A7035E06C4B1B78042B39
:1009FC0003D96A4B1B78062B03D9644B00221A705F
:100A0C0029E0FB680133FB60FB68052BDFDD22E08E
:100A1C000023BB601CE0624ABB6813441A785E4931
:100A2C00BB680B441B789A4203D0584B00221A70B7
:100A3C0011E05A4B1B78042B03D9584B1B78062B0F
:100A4C0003D9524B00221A7005E0BB680133BB601E
:100A5C00BB68052BDFDD4D4B1B78012B4CD0FFF712
:100A6C002DFC01224FF400614E4801F03CF90122AB
:100A7C0004214D4801F037F94FF4FA7000F090FC66
:100A8C0000220421484801F02EF905210020FFF72F
:100A9C001FFC4648FFF7FDFB01210120FFF718FC66
:100AAC004348FFF7F6FBFFF736FC4FF47A7000F083
:100ABC0077FC00224FF400613A4801F014F93D4BE9
:100ACC001B78013BDAB23B4B1A703A4B1B78002B6C
:100ADC000FD1FFF7F3FB00210020FFF7F9FB36489D
:100AEC00FFF7D7FB47F2305000F05AFC314B032292
:100AFC001A70FFF795FD44E001224FF480612948FC
:100B0C0001F0F1F800237B6012E001220421264859
:100B1C0001F0E9F8642000F043FC00220421224893
:100B2C0001F0E1F8642000F03BFC7B6801337B6052
:100B3C007B68032BE9DDFFF7C1FB02210020FFF7E7
:100B4C00C7FB1E48FFF7A5FB03210120FFF7C0FBE5
:100B5C001B48FFF79EFBFFF7DEFB134B08221A61C5
:100B6C0041F2707000F01CFC0F4B4FF400221A6124
:100B7C000C4B4FF080621A610E4B03221A70FFF778
:100B8C004FFD00BF1037BD4680BD00BF44000020A4
:100B9C00480000203C0000203400002042000020CF
:100BAC0000000020000C014000080140682C0008E7
:100BBC00702C000808000020802C0008902C0008E5
:100BCC00A02C000880B500AF012240F20B11B648F2
:100BDC0001F089F800220121B34801F084F80122C8
:100BEC004FF48571B04801F07EF81021AE4801F049
:100BFC0063F80346002B24D1822000F0D1FB102196
:100C0C00A94801F059F80346002B1AD1A74B1B78C1
:100C1C00A74A127811461846FFF75AFBFFF774FBE8
:100C2C00A448FFF736FBA44B07221A70A24B1B7883
:100C3C001846FFF733FD9E4B1B780133DAB29C4B01
:100C4C001A702021984801F037F80346002B24D164
:100C5C00822000F0A5FB2021934801F02DF80346DB
:100C6C00002B1AD1914B1B78914A127811461846D9
:100C7C00FFF72EFBFFF748FB9048FFF70AFB8E4B64
:100C8C0004221A708C4B1B781846FFF707FD884B13
:100C9C001B780133DAB2864B1A704021824801F07E
:100CAC000BF80346002B24D1642000F079FB402183
:100CBC007D4801F001F80346002B1AD17B4B1B78C1
:100CCC007B4A127811461846FFF702FBFFF71CFB14
:100CDC007B48FFF7DEFA784B01221A70764B1B78B3
:100CEC001846FFF7DBFC724B1B780133DAB2704B02
:100CFC001A7080216C4800F0DFFF0346002B1CD1DA
:100D0C00822000F04DFB8021674800F0D5FF0346A0
:100D1C00002B12D1654B1B78654A12781146184688
:100D2C00FFF7D6FAFFF7F0FA6648FFF7B2FA604B16
:100D3C001B780133DAB25E4B1A70002202215A483A
:100D4C0000F0D1FF012240F20911574800F0CBFF0F
:100D5C001021554800F0B0FF0346002B24D182200F
:100D6C0000F01EFB1021504800F0A6FF0346002B9C
:100D7C001AD14E4B1B784E4A127811461846FFF783
:100D8C00A7FAFFF7C1FA5048FFF783FA4A4B08223B
:100D9C001A70494B1B781846FFF780FC444B1B78A4
:100DAC000133DAB2424B1A7020213F4800F084FF25
:100DBC000346002B24D1822000F0F2FA20213A487D
:100DCC0000F07AFF0346002B1AD1384B1B78384AB7
:100DDC00127811461846FFF77BFAFFF795FA3B4855
:100DEC00FFF757FA344B05221A70334B1B78184611
:100DFC00FFF754FC2E4B1B780133DAB22C4B1A70D4
:100E0C004021294800F058FF0346002B24D18220B2
:100E1C0000F0C6FA4021244800F04EFF0346002B98
:100E2C001AD1224B1B78224A127811461846FFF72A
:100E3C004FFAFFF769FA2648FFF72BFA1E4B0222EE
:100E4C001A701D4B1B781846FFF728FC184B1B78A3
:100E5C000133DAB2164B1A708021134800F02CFFC4
:100E6C000346002B3ED1642000F09AFA80210E48F4
:100E7C0000F022FF0346002B34D10C4B1B780C4A9C
:100E8C00127811461846FFF723FAFFF73DFA11487E
:100E9C00FFF7FFF9084B00221A70074B1B78184616
:100EAC00FFF7FCFB18E000BF000C0140060000201F
:100EBC0007000020AC2C000843000020B02C0008D8
:100ECC00B42C0008B82C0008BC2C0008C02C00085E
:100EDC00C42C0008C82C00089E4B1B780133DAB2D6
:100EEC009C4B1A7000224FF480719B4800F0FBFE63
:100EFC0001220B21984800F0F6FE1021964800F0D4
:100F0C00DBFE0346002B24D11021934800F0D4FEC5
:100F1C000346002B1DD1822000F042FA8F4B1B7828
:100F2C008C4A127811461846FFF7D2F9FFF7ECF904
:100F3C008B48FFF7AEF98B4B09221A70894B1B7843
:100F4C001846FFF7ABFB834B1B780133DAB2814BAE
:100F5C001A702021804800F0AFFE0346002B24D1EC
:100F6C00822000F01DFA20217B4800F0A5FE0346EC
:100F7C00002B1AD1794B1B78764A127811461846F9
:100F8C00FFF7A6F9FFF7C0F97748FFF782F9754B21
:100F9C0006221A70734B1B781846FFF77FFB6D4BBC
:100FAC001B780133DAB26B4B1A7040216A4800F09F
:100FBC0083FE0346002B24D1822000F0F1F940215E
:100FCC00654800F079FE0346002B1AD1634B1B7861
:100FDC00604A127811461846FFF77AF9FFF794F930
:100FEC006248FFF756F95F4B03221A705D4B1B7872
:100FFC001846FFF753FB574B1B780133DAB2554BAE
:10100C001A708021544800F057FE0346002B1CD167
:10101C00822000F0C5F980214F4800F04DFE0346B8
:10102C00002B12D14D4B1B784A4A127811461846A8
:10103C00FFF74EF9FFF768F94D48FFF72AF9454BD2
:10104C001B780133DAB2434B1A7000220821424854
:10105C0000F049FE012240F203113F4800F043FE2C
:10106C0010213D4800F028FE0346002B1ED18220A3
:10107C0000F096F91021384800F01EFE0346002BB4
:10108C0014D13C4B1B78002B01D1FFF793FC394B4F
:10109C001B78012B04D1FFF7C3FB374B02221A70CC
:1010AC00354B1B78022B01D1FFF768FC20212A4815
:1010BC0000F002FE0346002B22D1822000F070F9D2
:1010CC002021254800F0F8FD0346002B18D1214BB8
:1010DC001B78013BDAB21F4B1A70FFF715F9274842
:1010EC00FFF7D7F81D4B1B781A4A12781146184691
:1010FC00FFF7EEF8224B1B78013BDAB2204B1A704B
:10110C004021154800F0D8FD0346002B0BD182205E
:10111C0000F046F94021104800F0CEFD0346002BAC
:10112C0001D1FFF76DFB80210B4800F0C5FD034694
:10113C00002B0BD1822000F033F98021064800F0FF
:10114C00BBFD0346002B01D1FFF76AFA054B1B7858
:10115C00184680BD07000020000C0140060000204E
:10116C00CC2C000843000020D02C0008D42C000804
:10117C00D82C00084600002047000020DC2C00087A
:10118C004200002080B400AF72B600BF00BFFDE784
:10119C0080B485B000AF154B9B69144A43F0010332
:1011AC009361124B9B6903F00103BB60BB680F4B4F
:1011BC00DB690E4A43F08053D3610C4BDB6903F0BF
:1011CC0080537B607B680A4B5B68FB60FB6823F099
:1011DC00E063FB60FB6843F00073FB60044AFB6850
:1011EC00536000BF1437BD4680BC704700100240EE
:1011FC000000014080B485B000AF78607B681B684C
:10120C00B3F1804F0BD1084BDB69074A43F0010364
:10121C00D361054BDB6903F00103FB60FB6800BF86
:10122C001437BD4680BC70470010024080B400AF3C
:10123C0000BFFDE780B400AF00BFFDE780B400AF96
:10124C0000BFFDE780B400AF00BFFDE780B400AF86
:10125C0000BFFDE780B400AF00BFBD4680BC704747
:10126C0080B400AF00BFBD4680BC704780B400AFF7
:10127C0000BFBD4680BC704780B500AF00F074F86D
:10128C0000BF80BD80B400AF00BFBD4680BC7047BE
:10129C00FFF7F8FF0B480C490C4A002302E0D45826
:1012AC00C4500433C4188C42F9D3094A094C0023A6
:1012BC0001E013600432A242FBD301F05FFCFFF7A4
:1012CC0071F8704700000020180000200C2D000859
:1012DC0018000020B8000020FEE7000080B500AF29
:1012EC00084B1B68074A43F010031360032000F0FF
:1012FC002BF90F2000F008F8FFF74AFF00231846DF
:10130C0080BD00BF0020024080B582B000AF786085
:10131C00124B1A68124B1B7819464FF47A73B3FBB5
:10132C00F1F3B2FBF3F3184600F035F90346002B4A
:10133C0001D001230EE07B680F2B0AD800227968BC
:10134C004FF0FF3000F00BF9064A7B681360002366
:10135C0000E0012318460837BD4680BD0C00002074
:10136C00140000201000002080B400AF054B1B7847
:10137C001A46054B1B681344034A136000BFBD4655
:10138C0080BC7047140000209400002080B400AF93
:10139C00024B1B681846BD4680BC70479400002069
:1013AC0080B584B000AF7860FFF7F0FFB8607B6861
:1013BC00FB60FB68B3F1FF3F05D00A4B1B781A4664
:1013CC00FB681344FB6000BFFFF7E0FF0246BB68FD
:1013DC00D31AFA689A42F7D800BF00BF1037BD463F
:1013EC0080BD00BF1400002080B485B000AF7860D1
:1013FC007B6803F00703FB600C4BDB68BB60BA68CF
:10140C004FF6FF031340BB60FB681A02BB68134323
:10141C0043F0BF6343F40033BB60044ABB68D36042
:10142C0000BF1437BD4680BC704700BF00ED00E024
:10143C0080B400AF044BDB681B0A03F007031846AB
:10144C00BD4680BC704700BF00ED00E080B483B0A7
:10145C0000AF03463960FB7197F90730002B0ADBAC
:10146C003B68DAB20C4997F907301201D2B20B443F
:10147C0083F800230AE03B68DAB20849FB7903F0F1
:10148C000F03043B1201D2B20B441A7600BF0C3787
:10149C00BD4680BC704700BF00E100E000ED00E0FD
:1014AC0080B489B000AFF860B9607A60FB6803F073
:1014BC000703FB61FB69C3F10703042B28BF04235B
:1014CC00BB61FB690433062B02D9FB69033B00E0CB
:1014DC0000237B614FF0FF32BB6902FA03F3DA435E
:1014EC00BB681A407B699A404FF0FF317B6901FA67
:1014FC0003F3D9437B680B40134318462437BD468E
:10150C0080BC704780B582B000AF78607B68013BCF
:10151C00B3F1807F01D301230FE00A4A7B68013BC2
:10152C0053600F214FF0FF30FFF790FF054B002267
:10153C009A60044B07221A60002318460837BD46F0
:10154C0080BD00BF10E000E080B582B000AF7860D5
:10155C007868FFF749FF00BF0837BD4680BD80B5EE
:10156C0086B000AF0346B9607A60FB7300237B61E1
:10157C00FFF75EFF78617A68B9687869FFF790FFCA
:10158C00024697F90F3011461846FFF75FFF00BF70
:10159C001837BD4680BD80B582B000AF78607868E2
:1015AC00FFF7B0FF034618460837BD4680BD000064
:1015BC00F0B587B000AFF860B960C7E9002301232C
:1015CC00FB750023BB7500237B752F4B1B7E012BFA
:1015DC0001D1022354E02C4B01221A764CF25030EC
:1015EC0000F0A8F80346FB75FB7D002B44D1FB688B
:1015FC00012B02D101237B7507E0FB68022B02D182
:10160C0002237B7501E004237B750023BB752DE061
:10161C00BB7D5A00BB6802EB030CBB7D1901D7E9FB
:10162C000023C1F12006A1F1200022FA01F403FAF3
:10163C0006F6344323FA00F0044323FA01F5A3B26F
:10164C001946604600F05AF84CF2503000F072F82F
:10165C000346FB750D4B1B690C4A23F00103136108
:10166C00FB7D002B07D1BB7D0133BB75BA7D7B7D28
:10167C009A42CDD300E000BF034B00221A76FB7DCB
:10168C0018461C37BD46F0BD9800002000200240D3
:10169C0080B483B000AF0023FB710D4B1B6903F0CA
:1016AC008003002B0DD00A4B0A4A5A60084B0A4A99
:1016BC005A60074B1B6903F08003002B01D00123F8
:1016CC00FB71FB7918460C37BD4680BC704700BFD8
:1016DC000020024023016745AB89EFCD80B400AFF9
:1016EC00054B1B69044A43F0800313610023184621
:1016FC00BD4680BC704700BF0020024080B483B060
:10170C0000AF78600B467B80084B0022DA61084BF7
:10171C001B69074A43F0010313617B687A881A80BE
:10172C0000BF0C37BD4680BC704700BF980000203E
:10173C000020024080B584B000AF7860FFF726FE31
:10174C00F86010E07B68B3F1FF3F0CD07B68002B96
:10175C0007D0FFF71BFE0246FB68D31A7A689A4241
:10176C0001D2032325E0154BDB6803F00103002BAA
:10177C00E8D1124BDB6803F02003002B02D00F4B97
:10178C002022DA600D4BDB6803F01003002B0BD129
:10179C000A4BDB6903F00103002B05D1074BDB6817
:1017AC0003F00403002B03D000F00AF8012300E03F
:1017BC00002318461037BD4680BD00BF00200240F4
:1017CC0080B483B000AF00237B60234BDB6803F055
:1017DC001003002B09D0214BDB6943F002031F4A95
:1017EC00D3617B6843F010037B601B4BDB6803F019
:1017FC000403002B09D0194BDB6943F00103174A92
:10180C00D3617B6843F004037B60134BDB6903F00B
:10181C000103002B0BD0114BDB6943F004030F4A7F
:10182C00D3610D4BDB690C4A23F00103D3617B6858
:10183C0040F20112934206D1074BDB69064A23F0B2
:10184C000103D36102E0044A7B68D36000BF0C370C
:10185C00BD4680BC704700BF0020024098000020AD
:10186C0080B584B000AF786039600123FB7300232E
:10187C00BB602F4B1B7E012B01D1022353E02C4B61
:10188C0001221A767B681B68022B16D14CF2503061
:10189C00FFF750FF0346002B41D1012000F04CF81C
:1018AC004CF25030FFF746FF0346FB73214B1B698C
:1018BC00204A23F00403136131E04CF25030FFF75F
:1018CC0039FF0346002B2AD13B684FF0FF321A60D8
:1018DC007B689B68BB6019E0B86800F049F84CF273
:1018EC005030FFF727FF0346FB73124B1B69114A5D
:1018FC0023F002031361FB7B002B03D03B68BA6817
:10190C001A600CE0BB6803F58063BB607B68DB6826
:10191C009A027B689B681344BA689A42DCD3044BE6
:10192C0000221A76FB7B18461037BD4680BD00BFDF
:10193C00980000200020024080B483B000AF786093
:10194C00094B0022DA61094B1B69084A43F0040376
:10195C001361064B1B69054A43F04003136100BF3A
:10196C000C37BD4680BC7047980000200020024018
:10197C0080B483B000AF78600B4B0022DA610B4B64
:10198C001B690A4A43F002031361084A7B685361DE
:10199C00064B1B69054A43F04003136100BF0C372B
:1019AC00BD4680BC704700BF98000020002002405C
:1019BC0080B48BB000AF7860396000237B62002369
:1019CC003B6269E101227B6A02FA03F3FB613B682B
:1019DC001B68FA691340BB61BA69FB699A4240F013
:1019EC0058813B685B689A4A93425ED0984A93420E
:1019FC0075D8984A934258D0964A93426FD8964AD3
:101A0C00934252D0944A934269D8944A93424CD010
:101A1C00924A934263D8924A934246D0904A934258
:101A2C005DD8122B2AD8122B59D801A252F823F0C8
:101A3C00B71A0008911A0008A31A0008E51A000842
:101A4C00EB1A0008EB1A0008EB1A0008EB1A000856
:101A5C00EB1A0008EB1A0008EB1A0008EB1A000846
:101A6C00EB1A0008EB1A0008EB1A0008EB1A000836
:101A7C00EB1A0008991A0008AD1A0008794A93422B
:101A8C0013D02CE03B68DB683B6229E03B68DB68E9
:101A9C0004333B6224E03B68DB6808333B621FE0A5
:101AAC003B68DB680C333B621AE03B689B68002B9D
:101ABC0002D104233B6213E03B689B68012B05D1E8
:101ACC0008233B627B68FA691A6109E008233B62D0
:101ADC007B68FA695A6103E000233B6200E000BFB7
:101AEC00BB69FF2B01D87B6801E07B6804337B6109
:101AFC00BB69FF2B02D87B6A9B0002E07B6A083B28
:101B0C009B003B617B691A680F213B6901FA03F367
:101B1C00DB431A40396A3B6901FA03F31A437B69C8
:101B2C001A603B685B6803F08053002B00F0B180B7
:101B3C004D4B9B694C4A43F0010393614A4B9B69A3
:101B4C0003F00103BB60BB68484A7B6A9B08023305
:101B5C0052F82330FB607B6A03F003039B000F22D7
:101B6C0002FA03F3DB43FA681340FB607B68404ADC
:101B7C00934213D07B683F4A93420DD07B683E4A18
:101B8C00934207D07B683D4A934201D1032306E080
:101B9C00042304E0022302E0012300E000237A6A1C
:101BAC0002F0030292009340FA681343FB602F4942
:101BBC007B6A9B080233FA6841F823203B685B6818
:101BCC0003F48013002B06D02D4B9A682C49BB696B
:101BDC0013438B6006E02A4B9A68BB69DB432849A8
:101BEC0013408B603B685B6803F40013002B06D03A
:101BFC00234BDA682249BB691343CB6006E0204BC8
:101C0C00DA68BB69DB431E491340CB603B685B68F9
:101C1C0003F40033002B06D0194B5A681849BB69E2
:101C2C0013434B6006E0164B5A68BB69DB431449FF
:101C3C0013404B603B685B6803F48033002B21D06E
:101C4C000F4B1A680E49BB6913430B6021E000BFB0
:101C5C000000321000003110000022100000211092
:101C6C000000121000001110001002400000014092
:101C7C0000080140000C014000100140001401401C
:101C8C00000401400B4B1A68BB69DB430949134044
:101C9C000B607B6A01337B623B681A687B6A22FAB1
:101CAC0003F3002B7FF48EAE00BF00BF2C37BD4674
:101CBC0080BC70470004014080B485B000AF7860F0
:101CCC000B467B807B689A687B881340002B02D084
:101CDC000123FB7301E00023FB73FB7B18461437D5
:101CEC00BD4680BC704780B483B000AF78600B46B3
:101CFC007B8013467B707B78002B03D07A887B68C3
:101D0C001A6103E07B881A047B681A6100BF0C37E8
:101D1C00BD4680BC7047000080B586B000AF7860CF
:101D2C007B68002B01D1012372E27B681B6803F0F6
:101D3C000103002B00F08780924B5B6803F00C03CF
:101D4C00042B0CD08F4B5B6803F00C03082B12D1C7
:101D5C008C4B5B6803F48033B3F5803F0BD1894B1C
:101D6C001B6803F40033002B6CD07B685B68002B82
:101D7C0068D101234CE27B685B68B3F5803F06D1E8
:101D8C00804B1B687F4A43F4803313602EE07B68E2
:101D9C005B68002B0CD17B4B1B687A4A23F4803395
:101DAC001360784B1B68774A23F4802313601DE083
:101DBC007B685B68B3F5A02F0CD1724B1B68714A22
:101DCC0043F4802313606F4B1B686E4A43F48033DB
:101DDC0013600BE06B4B1B686A4A23F4803313606F
:101DEC00684B1B68674A23F4802313607B685B682D
:101DFC00002B13D0FFF7CAFA386108E0FFF7C6FAD8
:101E0C0002463B69D31A642B01D9032300E25D4BD4
:101E1C001B6803F40033002BF0D014E0FFF7B6FA84
:101E2C00386108E0FFF7B2FA02463B69D31A642B1B
:101E3C0001D90323ECE1534B1B6803F40033002B53
:101E4C00F0D100E000BF7B681B6803F00203002B9D
:101E5C0063D04C4B5B6803F00C03002B0BD0494B4D
:101E6C005B6803F00C03082B1CD1464B5B6803F436
:101E7C008033002B16D1434B1B6803F00203002B5D
:101E8C0005D07B681B69012B01D00123C0E13D4BC0
:101E9C001B6823F0F8027B685B69DB00394913434C
:101EAC000B603AE07B681B69002B20D0364B01227B
:101EBC001A60FFF76BFA386108E0FFF767FA024621
:101ECC003B69D31A022B01D90323A1E12D4B1B68CB
:101EDC0003F00203002BF0D02A4B1B6823F0F8020E
:101EEC007B685B69DB00274913430B6015E0264BCD
:101EFC0000221A60FFF74AFA386108E0FFF746FA49
:101F0C0002463B69D31A022B01D9032380E11D4BF6
:101F1C001B6803F00203002BF0D17B681B6803F0F5
:101F2C000803002B3AD07B689B69002B19D0174B08
:101F3C0001221A60FFF72AFA386108E0FFF726FA47
:101F4C0002463B69D31A022B01D9032360E10D4BE6
:101F5C005B6A03F00203002BF0D0012000F09CFA26
:101F6C001CE00A4B00221A60FFF710FA38610FE0F0
:101F7C00FFF70CFA02463B69D31A022B08D903234C
:101F8C0046E100BF00100240000042428004424281
:101F9C00924B5B6A03F00203002BE9D17B681B6850
:101FAC0003F00403002B00F0A6800023FB758B4B81
:101FBC00DB6903F08053002B0DD1884BDB69874A1A
:101FCC0043F08053D361854BDB6903F08053BB60D6
:101FDC00BB680123FB75824B1B6803F48073002BD9
:101FEC0018D17F4B1B687E4A43F480731360FFF754
:101FFC00CDF9386108E0FFF7C9F902463B69D31AFD
:10200C00642B01D9032303E1754B1B6803F4807324
:10201C00002BF0D07B68DB68012B06D16F4B1B6A61
:10202C006E4A43F0010313622DE07B68DB68002BE2
:10203C000CD16A4B1B6A694A23F001031362674B8C
:10204C001B6A664A23F0040313621CE07B68DB689E
:10205C00052B0CD1614B1B6A604A43F004031362DD
:10206C005E4B1B6A5D4A43F0010313620BE05B4B52
:10207C001B6A5A4A23F001031362584B1B6A574AD6
:10208C0023F0040313627B68DB68002B15D0FFF789
:10209C007DF938610AE0FFF779F902463B69D31AFA
:1020AC0041F28832934201D90323B1E04B4B1B6AB6
:1020BC0003F00203002BEED014E0FFF767F9386150
:1020CC000AE0FFF763F902463B69D31A41F2883202
:1020DC00934201D903239BE0404B1B6A03F002039C
:1020EC00002BEED1FB7D012B05D13C4BDB693B4A30
:1020FC0023F08053D3617B68DB69002B00F0878071
:10210C00364B5B6803F00C03082B61D07B68DB69F2
:10211C00022B46D1334B00221A60FFF737F9386196
:10212C0008E0FFF733F902463B69D31A022B01D9B9
:10213C0003236DE0294B1B6803F00073002BF0D1D7
:10214C007B681B6AB3F5803F08D1244B5B6823F492
:10215C0000327B689B68214913434B601F4B5B68C3
:10216C0023F474127B68196A7B685B6A0B431B4906
:10217C0013434B601B4B01221A60FFF707F93861C0
:10218C0008E0FFF703F902463B69D31A022B01D989
:10219C0003233DE0114B1B6803F00073002BF0D0C0
:1021AC0035E0104B00221A60FFF7F0F8386108E0B8
:1021BC00FFF7ECF802463B69D31A022B01D9032333
:1021CC0026E0064B1B6803F00073002BF0D11EE0D9
:1021DC007B68DB69012B07D1012319E00010024059
:1021EC0000700040600042420B4B5B68FB60FB6878
:1021FC0003F480327B681B6A9A4206D1FB6803F4B5
:10220C0070127B685B6A9A4201D0012300E00023C4
:10221C0018461837BD4680BD0010024080B584B00A
:10222C0000AF786039607B68002B01D10123D0E0CE
:10223C006A4B1B6803F007033A689A4210D9674B44
:10224C001B6823F0070265493B6813430B60634B23
:10225C001B6803F007033A689A4201D00123B8E0E7
:10226C007B681B6803F00203002B20D07B681B6883
:10227C0003F00403002B05D0594B5B68584A43F418
:10228C00E06353607B681B6803F00803002B05D0E8
:10229C00534B5B68524A43F460535360504B5B683A
:1022AC0023F0F0027B689B684D4913434B607B68BD
:1022BC001B6803F00103002B40D07B685B68012B8B
:1022CC0007D1474B1B6803F40033002B15D10123B6
:1022DC007FE07B685B68022B07D1414B1B6803F0E6
:1022EC000073002B09D1012373E03D4B1B6803F0F5
:1022FC000203002B01D101236BE0394B5B6823F007
:10230C0003027B685B68364913434B60FFF73EF86A
:10231C00F8600AE0FFF73AF80246FB68D31A41F27C
:10232C008832934201D9032353E02D4B5B6803F0B1
:10233C000C027B685B689B009A42EBD1274B1B68B5
:10234C0003F007033A689A4210D2244B1B6823F01F
:10235C00070222493B6813430B60204B1B6803F0B8
:10236C0007033A689A4201D0012332E07B681B686C
:10237C0003F00403002B08D0194B5B6823F4E062D4
:10238C007B68DB68164913434B607B681B6803F062
:10239C000803002B09D0124B5B6823F460527B6856
:1023AC001B69DB000E4913434B6000F021F8024619
:1023BC000B4B5B681B0903F00F030A49CB5C22FA39
:1023CC0003F3094A1360094B1B681846FEF79CFF80
:1023DC00002318461037BD4680BD00BF00200240C8
:1023EC0000100240E02C00080C000020100000201F
:1023FC0080B487B000AF0023FB600023BB600023D8
:10240C007B6100237B6000233B611E4B5B68FB60A0
:10241C00FB6803F00C03042B02D0082B03D027E03D
:10242C00194B3B6127E0FB689B0C03F00F03174A29
:10243C00D35C7B60FB6803F48033002B10D0114B12
:10244C005B685B0C03F00103114AD35CBB607B68D7
:10245C000D4A03FB02F2BB68B2FBF3F37B6104E0B1
:10246C007B680C4A02FB03F37B617B693B6102E0F6
:10247C00054B3B6100BF3B6918461C37BD4680BC11
:10248C00704700BF0010024000127A00F02C0008C8
:10249C00002D000800093D0080B485B000AF7860C5
:1024AC000A4B1B680A4AA2FB03235B0A7A6802FBED
:1024BC0003F3FB6000BFFB685A1EFA60002BF9D1D6
:1024CC0000BF00BF1437BD4680BC70470C00002015
:1024DC00D34D621080B582B000AF78607B68002B62
:1024EC0001D1012341E07B6893F83D30DBB2002B36
:1024FC0006D17B68002283F83C207868FEF77AFED0
:10250C007B68022283F83D207B681A687B68043361
:10251C001946104600F036F97B68012283F84620F4
:10252C007B68012283F83E207B68012283F83F20E0
:10253C007B68012283F840207B68012283F84120CC
:10254C007B68012283F842207B68012283F84320B8
:10255C007B68012283F844207B68012283F84520A4
:10256C007B68012283F83D20002318460837BD46BE
:10257C0080BD80B584B000AF786039600023FB73F8
:10258C007B6893F83C30012B01D10223B4E07B68CB
:10259C00012283F83C207B68022283F83D207B6873
:1025AC001B689B68BB60BB6823F07703BB60BB6890
:1025BC0023F47F43BB607B681B68BA689A603B68F6
:1025CC001B68B3F5005F3ED0B3F5005F00F2878067
:1025DC00B3F5805F00F08680B3F5805F7FD8702BF9
:1025EC001AD0702B7BD8602B50D0602B77D8502B07
:1025FC003CD0502B73D8402B58D0402B6FD8302B5D
:10260C0064D0302B6BD8202B60D0202B67D8002BBC
:10261C005CD0102B5AD062E07B6818683B689968D4
:10262C003B685A683B68DB6800F022FA7B681B68E1
:10263C009B68BB60BB6843F07703BB607B681B681F
:10264C00BA689A604FE07B6818683B6899683B6889
:10265C005A683B68DB6800F00BFA7B681B689A6869
:10266C007B681B6842F480429A603CE07B68186887
:10267C003B6859683B68DB681A4600F082F97B6856
:10268C001B685021184600F0D9F92CE07B681868BB
:10269C003B6859683B68DB681A4600F0A0F97B6818
:1026AC001B686021184600F0C9F91CE07B681868AB
:1026BC003B6859683B68DB681A4600F062F97B6836
:1026CC001B684021184600F0B9F90CE07B681A68C9
:1026DC003B681B681946104600F0B0F903E0012373
:1026EC00FB7300E000BF7B68012283F83D207B6810
:1026FC00002283F83C20FB7B18461037BD4680BD7A
:10270C0080B582B000AF786039607B6893F83C305C
:10271C00012B01D1022331E07B68012283F83C209C
:10272C007B68022283F83D203968786800F098F8BD
:10273C000346002B09D07B68012283F83D207B687F
:10274C00002283F83C20012318E07B681B68DA68C0
:10275C007B681B6822F04002DA607B681B68DA68D1
:10276C007B681B6822F48042DA607B68012283F864
:10277C003D207B68002283F83C2000231846083754
:10278C00BD4680BD80B485B000AF786039607B6891
:10279C001B68FB607B682F4A93420BD07B68B3F1BC
:1027AC00804F07D07B682C4A934203D07B682B4A1E
:1027BC00934208D1FB6823F07003FB603B685B68B5
:1027CC00FA681343FB607B68224A93420BD07B6808
:1027DC00B3F1804F07D07B681F4A934203D07B68CC
:1027EC001E4A934208D1FB6823F44073FB603B689C
:1027FC00DB68FA681343FB60FB6823F080023B68DC
:10280C005B691343FB607B68FA681A603B689A68E3
:10281C007B68DA623B681A687B689A627B680D4A4F
:10282C00934203D13B681A697B681A637B68012267
:10283C005A617B681B6903F00103002B05D07B6890
:10284C001B6923F001027B681A6100BF1437BD4677
:10285C0080BC7047002C0140000400400008004080
:10286C0080B586B000AF786039600023FB757B685B
:10287C001B689B683B613B6923F070033B613B68C1
:10288C005B683A6913433B613B6923F007033B6187
:10289C003B681B683A6913433B617B681B683A6968
:1028AC009A603B685B68702B1AD0702B60D8602BD9
:1028BC0054D0602B5CD8502B46D0502B58D8402B82
:1028CC0019D0402B54D8302B55D0302B50D8202B2E
:1028DC0051D0202B4CD8002B4DD0102B4BD047E097
:1028EC007B6818683B68D9683B689A683B681B69C9
:1028FC0000F0BEF840E03B681B68052B01D10123BA
:10290C003BE07B681B681B6AFB607B681B681A6A70
:10291C007B681B6822F001021A627B681B689B694A
:10292C00BB60BB6823F0F003BB603B681B691B01F9
:10293C00BA681343BB607B681B68BA689A617B6892
:10294C001B68FA681A6217E07B6818683B6899681C
:10295C003B681B691A4600F014F80DE07B68186898
:10296C003B6899683B681B691A4600F038F803E02D
:10297C000123FB7500E000BFFB7D18461837BD46F0
:10298C0080BD80B487B000AFF860B9607A60FB6836
:10299C001B6A7B61FB681B6A23F00102FB681A62ED
:1029AC00FB689B693B613B6923F0F0033B617B68EF
:1029BC001B013A6913433B617B6923F00A037B617A
:1029CC007A69BB6813437B61FB683A699A61FB685F
:1029DC007A691A6200BF1C37BD4680BC704780B450
:1029EC0087B000AFF860B9607A60FB681B6A7B61E6
:1029FC00FB681B6A23F01002FB681A62FB689B6978
:102A0C003B613B6923F470433B617B681B033A6970
:102A1C0013433B617B6923F0A0037B61BB681B0103
:102A2C007A6913437B61FB683A699A61FB687A693E
:102A3C001A6200BF1C37BD4680BC704780B485B09D
:102A4C0000AF786039607B689B68FB60FB6823F0A3
:102A5C007003FB603A68FB68134343F00703FB60A9
:102A6C007B68FA689A6000BF1437BD4680BC70471B
:102A7C0080B487B000AFF860B9607A603B60FB68E7
:102A8C009B687B617B6923F47F437B613B681A0203
:102A9C007B681A43BB6813437A6913437B61FB68F9
:102AAC007A699A6000BF1C37BD4680BC7047000035
:102ABC0080B485B000AF786039607B6893F83C30A7
:102ACC00012B01D1022346E07B68012283F83C20D4
:102ADC007B68022283F83D207B681B685B68FB6087
:102AEC007B681B689B68BB60FB6823F07003FB6012
:102AFC003B681B68FA681343FB607B681B68FA68C9
:102B0C005A607B681B68164A93420ED07B681B6820
:102B1C00B3F1804F09D07B681B68124A934204D0F2
:102B2C007B681B68104A93420CD1BB6823F080036E
:102B3C00BB603B685B68BA681343BB607B681B680F
:102B4C00BA689A607B68012283F83D207B6800227A
:102B5C0083F83C20002318461437BD4680BC7047D0
:102B6C00002C0140000400400008004003460244D1
:102B7C00934200D1704703F8011BF9E770B50026AA
:102B8C000C4D0D4C641BA410A64209D100F01AF890
:102B9C0000260A4D0A4C641BA410A64205D170BD38
:102BAC0055F8043B98470136EEE755F8043B984737
:102BBC000136F2E7042D0008042D0008042D00084E
:102BCC00082D0008F8B500BFF8BC08BC9E4670473D
:0C2BDC00F8B500BFF8BC08BC9E4670476E
:102BE80057454C4C434F4D4521000000504153532D
:102BF800434F44453A00000057616974696E672E77
:102C08002E2E0000456E746572204F6C6420506152
:102C1800737300003D3E000046414C53452C0000B4
:102C2800504C4541534520414741494E2021000021
:102C3800456E746572204E6577205061737300008D
:102C48005375636365737366756C00004368616EE2
:102C580067652070617373636F646521000000000D
:102C68004641494C2C000000504C454153452041F9
:102C78004741494E2100000057414954494E4720D9
:102C8800464F522033307300486948692C535543E6
:102C9800434553532121000057454C4C434F4D4564
:102CA800212121003700000034000000310000001D
:102CB8002A00000038000000350000003200000043
:102CC800300000003900000036000000330000002A
:102CD80023000000200000000000000000000000A9
:102CE8000102030406070809020304050607080988
:0C2CF8000A0B0C0D0E0F10100102000062
:042D04003101000891
:042D08000D010008B1
:102D0C0001020304050601090300000000127A0009
:082D1C0010000000010000009E
:040000050800129D40
:00000001FF
