:020000040800F2
:10000000005000201D110008B9100008C1100008A0
:10001000C9100008D1100008D91000080000000025
:10002000000000000000000000000000E1100008D7
:10003000ED10000800000000F9100008051100088C
:1000400065110008651100086511000865110008B8
:1000500065110008651100086511000865110008A8
:100060006511000865110008651100086511000898
:100070006511000865110008651100086511000888
:100080006511000865110008651100086511000878
:100090006511000865110008651100086511000868
:1000A0006511000865110008651100086511000858
:1000B0006511000865110008651100086511000848
:1000C0006511000865110008651100086511000838
:1000D0006511000865110008651100086511000828
:1000E0006511000865110008651100080000000096
:1000F0000000000000000000000000000000000000
:0C01000000000000000000005FF808F1A3
:10010C0010B5054C237833B9044B13B10448AFF345
:10011C0000800123237010BD30000020000000007F
:10012C005026000808B5034B1BB103490348AFF335
:10013C00008008BD0000000034000020502600089C
:10014C0080B582B000AFC7F804C0174B01221A600B
:10015C00164B09221A6000F0F9FE0421002000F071
:10016C002DFF134800F00BFF052001F059F800217A
:10017C00012000F023FF0F4800F001FF09210120AE
:10018C0000F01CFF00F036FF0B4B00221A60064BF0
:10019C0001221A60054B09221A60084B00221A60D2
:1001AC0000BF0837BD4680BD180000201C00002091
:1001BC0068260008742600086400002074000020E3
:1001CC0080B582B000AF07F110037B6000F0C6FF72
:1001DC0000F00EFD00F0B6FD00F050FD3B1D9C46FE
:1001EC00FFF7AEFF3B1D9C4600F014FAFAE7000047
:1001FC0080B483B000AF7860C7F800C0094B1B68AF
:10020C00052B0ADC074B1B6807497A6841F8232049
:10021C00044B1B680133034A136000BF0C37BD4607
:10022C0080BC7047640000204C00002080B582B078
:10023C0000AFC7F804C0134B01221A60124B002206
:10024C001A6000F0B1FE114800F099FE00F0D9FEE2
:10025C00642000F0E5FF00F0A7FE0021002000F074
:10026C00ADFE0B4800F08BFE0021012000F0A6FE35
:10027C00084800F084FE00F0BDFE00BF0837BD4604
:10028C0080BD00BF740000206400002080260008A0
:10029C008C2600089C26000880B483B000AF7860E0
:1002AC00C7F800C00A4B1B68052B0CDC084B1B68FD
:1002BC0008497A6841F82320074B1B685A1C0649E9
:1002CC000A60034A136000BF0C37BD4680BC704700
:1002DC00C00000204C0000206400002090B585B0C8
:1002EC0000AF6446C7F804C0114B01221A60114BD1
:1002FC0002221A600023FB6012E00D4B1B68DBB27C
:10030C000C4A1268D2B21146184600F057FE0A4B3E
:10031C001B68A4461846FFF7BFFFFB680133FB6060
:10032C00FB68052BE9DD00BF00BF1437BD4690BD4F
:10033C00180000201C0000206800002090B583B03D
:10034C0000AF6446C7F804C0A446FFF76FFFA4468D
:10035C00FFF7C4FF00BF0C37BD4690BD90B585B00C
:10036C0000AF6446C7F804C02C4B01221A6000236E
:10037C00FB601FE02A4AFB6852F823202949FB68DE
:10038C0051F823309A4203D0244B00221A6014E017
:10039C00254B1B68042B03DD234B1B68062B03DD4D
:1003AC001E4B00221A6008E01C4B01221A60FB68ED
:1003BC000133FB60FB68052BDCDD184B1B68012B44
:1003CC0018D000F0F1FD0121002000F0F7FD1748D6
:1003DC0000F0D5FD0121012000F0F0FD144800F0E3
:1003EC00CEFD00F00EFE642000F01AFFA446FFF7CD
:1003FC00A5FF0FE000F0D8FD0121002000F0DEFD8C
:10040C000C4800F0BCFD0121012000F0D7FD0A488A
:10041C0000F0B5FD00BF1437BD4690BD7000002044
:10042C00000000204C00002064000020A0260008E2
:10043C00A8260008B82600089C26000890B585B0B0
:10044C0000AF6446C7F804C0664B01221A60002353
:10045C00FB601CE0644AFB6852F823206349FB688C
:10046C0051F823309A4203D05E4B00221A6011E0FF
:10047C005F4B1B68042B03DD5D4B1B68062B03DDF8
:10048C00584B00221A6005E0FB680133FB60FB68E7
:10049C00052BDFDD534B1B68012B43D000F084FD93
:1004AC00544B4FF400621A61534B04221A614FF4FF
:1004BC00FA7000F0B5FE504B4FF480221A61052102
:1004CC00002000F07BFD4D4800F059FD012101207A
:1004DC0000F074FD4A4800F052FD00F092FD6420DB
:1004EC0000F09EFE434B4FF000621A61454B1B68B7
:1004FC00013B444A1360434B1B68002B0ED100F0A8
:10050C0053FD0021002000F059FD3F4800F037FD5D
:10051C00642000F085FE3B4B03221A60A446FFF7D3
:10052C000FFE5BE0334B4FF480621A61324B0422B6
:10053C001A610A2000F074FE2F4B4FF480221A61CE
:10054C000A2000F06DFE2C4B04221A610A2000F0E8
:10055C0067FE294B4FF480221A610A2000F060FEDE
:10056C00254B04221A610A2000F05AFE224B4FF44C
:10057C0080221A610A2000F053FE1F4B04221A61DC
:10058C000A2000F04DFE1C4B4FF480221A6100F043
:10059C000BFD0221002000F011FD1C4800F0EFFCC7
:1005AC000321012000F00AFD194800F0E8FC00F0DE
:1005BC0028FD114B08221A614FF4967000F030FEA2
:1005CC000D4B4FF400221A610A4B4FF080621A61F6
:1005DC000C4B03221A60A446FFF7B2FD00BF143780
:1005EC00BD4690BD6C000020000000204C00002097
:1005FC0064000020000C014000080140C8260008DF
:10060C00D026000820000020E0260008F026000874
:10061C000027000890B583B000AF6446C7F804C04B
:10062C00AE4B40F20B121A61AC4B4FF480321A6194
:10063C00AA4B0E221A611021A84801F07DF803463E
:10064C00002B26D1322000F0EBFD1021A34801F045
:10065C0073F80346002B1CD1A14B1B68DBB2A14ADB
:10066C001268D2B21146184600F0A8FC00F0C2FC89
:10067C009D4800F084FC9D4B07221A609B4B1B6825
:10068C00A4461846FFF7B4FD964B1B680133954AF8
:10069C0013602021914801F04FF80346002B26D11E
:1006AC00322000F0BDFD20218C4801F045F80346B6
:1006BC00002B1CD18A4B1B68DBB28A4A1268D2B25F
:1006CC001146184600F07AFC00F094FC884800F0C3
:1006DC0056FC864B04221A60844B1B68A4461846B1
:1006EC00FFF786FD7F4B1B6801337E4A1360402168
:1006FC007A4801F021F80346002B26D1322000F075
:10070C008FFD4021754801F017F80346002B1CD1D2
:10071C00734B1B68DBB2734A1268D2B2114618468F
:10072C0000F04CFC00F066FC724800F028FC6F4BAB
:10073C0001221A606D4B1B68A4461846FFF758FD42
:10074C00684B1B680133674A13608021634800F0D3
:10075C00F3FF0346002B1DD1322000F061FD8021F8
:10076C005E4800F0E9FF0346002B13D15C4B1B687D
:10077C00DBB25C4A1268D2B21146184600F01EFC7D
:10078C0000F038FC5C4800F0FAFB564B1B68013358
:10079C00544A1360514B4FF400321A614F4B0D22E7
:1007AC001A6110214D4800F0C7FF0346002B26D1DB
:1007BC00322000F035FD1021484800F0BDFF034603
:1007CC00002B1CD1464B1B68DBB2464A1268D2B2D6
:1007DC001146184600F0F2FB00F00CFC474800F004
:1007EC00CEFB424B08221A60404B1B68A4461846AD
:1007FC00FFF7FEFC3B4B1B6801333A4A1360202188
:10080C00364800F099FF0346002B26D1322000F029
:10081C0007FD2021314800F08FFF0346002B1CD12F
:10082C002F4B1B68DBB22F4A1268D2B21146184606
:10083C0000F0C4FB00F0DEFB314800F0A0FB2B4BBA
:10084C0005221A60294B1B68A4461846FFF7D0FCFA
:10085C00244B1B680133234A136040211F4800F0CE
:10086C006BFF0346002B26D1322000F0D9FC40212F
:10087C001A4800F061FF0346002B1CD1184B1B6873
:10088C00DBB2184A1268D2B21146184600F096FB39
:10089C0000F0B0FB1B4800F072FB144B02221A60F4
:1008AC00124B1B68A4461846FFF7A2FC0D4B1B68A5
:1008BC0001330C4A13608021084800F03DFF0346C9
:1008CC00002B3ED1322000F0ABFC8021034800F01D
:1008DC0033FF0346002B34D116E000BF000C01405F
:1008EC00180000201C0000200C27000868000020C5
:1008FC001027000814270008182700081C270008D8
:10090C002027000824270008AD4B1B68DBB2AD4A3A
:10091C001268D2B21146184600F050FB00F06AFB88
:10092C00A94800F02CFBA94B00221A60A74B1B68AE
:10093C00A4461846FFF75CFCA24B1B680133A14A86
:10094C001360A34B4FF080721A61A14B0B221A61FA
:10095C0010219F4800F0F0FE0346002B26D13220D8
:10096C0000F05EFC10219A4800F0E6FE0346002BD6
:10097C001CD1934B1B68DBB2924A1268D2B211465F
:10098C00184600F01BFB00F035FB924800F0F7FA1C
:10099C008E4B09221A608D4B1B68A4461846FFF734
:1009AC0027FC884B1B680133864A1360202188483A
:1009BC0000F0C2FE0346002B26D1322000F030FCA2
:1009CC002021834800F0B8FE0346002B1CD17C4B41
:1009DC001B68DBB27B4A1268D2B21146184600F093
:1009EC00EDFA00F007FB7C4800F0C9FA774B0622C1
:1009FC001A60764B1B68A4461846FFF7F9FB714B3F
:100A0C001B6801336F4A13604021714800F094FE5B
:100A1C000346002B26D1322000F002FC40216C480A
:100A2C0000F08AFE0346002B1CD1654B1B68DBB221
:100A3C00644A1268D2B21146184600F0BFFA00F0B0
:100A4C00D9FA664800F09BFA604B03221A605F4BA0
:100A5C001B68A4461846FFF7CBFB5A4B1B680133A7
:100A6C00584A136080215A4800F066FE0346002B5A
:100A7C001DD1322000F0D4FB8021554800F05CFEE3
:100A8C000346002B13D14E4B1B68DBB24D4A126848
:100A9C00D2B21146184600F091FA00F0ABFA504869
:100AAC0000F06DFA474B1B680133464A1360484B04
:100ABC004FF400221A61464B07221A611021444858
:100ACC0000F03AFE0346002B17D1322000F0A8FBB1
:100ADC0010213F4800F030FE0346002B0DD1414B56
:100AEC001B68012B02D1A446FFF738FC3D4B1B6859
:100AFC00002B02D1A446FFF7A1FC2021344800F0C2
:100B0C001BFE0346002B2CD1322000F089FB202148
:100B1C002F4800F011FE0346002B22D1294B1B68F5
:100B2C00013B284A1360264B1B68DBB2254A12682E
:100B3C00D2B21146184600F041FA00F05BFA2A488E
:100B4C0000F01DFA1E4B1B68DBB21E4A1268D2B2B3
:100B5C001146184600F032FA244B1B68013B234A1D
:100B6C00136040211A4800F0E7FD0346002B0CD11E
:100B7C00322000F055FB4021154800F0DDFD034606
:100B8C00002B02D1A446FFF7D9FB8021104800F0BE
:100B9C00D3FD0346002B0CD1322000F041FB802109
:100BAC000B4800F0C9FD0346002B02D1A446FFF709
:100BBC00C7FA064B1B6818460C37BD4690BD00BFE4
:100BCC00180000201C0000202827000868000020C6
:100BDC00000C01402C27000830270008342700089F
:100BEC0038270008740000203C270008640000200F
:100BFC0080B590B000AF07F11803282200211846E9
:100C0C0001F0F4FC3B1D00221A605A609A60DA6015
:100C1C001A610123BB614FF48033FB6100233B62FB
:100C2C000123BB6202237B634FF48033BB634FF41D
:100C3C00E013FB6307F11803184600F0ADFD034603
:100C4C00002B01D000F0ECF80F237B600223BB607B
:100C5C000023FB604FF480633B6100237B613B1DF1
:100C6C000221184601F01AF80346002B01D000F0BF
:100C7C00D7F800BF4037BD4680BD000080B58CB0B2
:100C8C0000AF07F1200300221A605A609A60DA6004
:100C9C0007F10C0300221A605A609A60DA601A613C
:100CAC003B1D00221A605A60254B4FF080421A609F
:100CBC00234B00225A60224B00229A60204B4FF6A5
:100CCC00FF72DA601E4B00221A611D4B00229A61E2
:100CDC001B4801F03FF90346002B01D000F0A0F8AF
:100CEC004FF480533B6207F120031946144801F07E
:100CFC0080F90346002B01D000F092F80023FB6032
:100D0C0020233B6107F10C0319460D4801F038FA1A
:100D1C000346002B01D000F083F800237B600023F6
:100D2C00BB603B1D1946064801F002FC0346002B34
:100D3C0001D000F075F800BF3037BD4680BD00BF54
:100D4C007800002080B588B000AF07F110030022B6
:100D5C001A605A609A60DA602E4B9B692D4A43F0F8
:100D6C00200393612B4B9B6903F02003FB60FB6812
:100D7C00284B9B69274A43F004039361254B9B69DD
:100D8C0003F00403BB60BB68224B9B69214A43F010
:100D9C00080393611F4B9B6903F008037B607B681E
:100DAC00002248F2FF011C4800F0DDFC002240F656
:100DBC000F711A4800F0D7FC48F2FF033B61012386
:100DCC007B610023BB610223FB6107F11003194611
:100DDC00114800F02DFB40F60F733B6101237B6142
:100DEC000023BB610223FB6107F1100319460B487A
:100DFC0000F01EFBF0233B6100237B610123BB61F0
:100E0C0007F110031946054800F012FB00BF20370C
:100E1C00BD4680BD0010024000080140000C01409E
:100E2C0080B400AF72B600BF00BFFDE780B582B0E2
:100E3C0000AF0346FB71FB7903F00103DBB21A46EA
:100E4C001021144800F08FFCFB795B08DBB203F037
:100E5C000103DBB21A4620210E4800F084FCFB791A
:100E6C009B08DBB203F00103DBB21A4640210948B0
:100E7C0000F079FCFB79DB08DBB203F00103DBB299
:100E8C001A468021034800F06EFC00BF0837BD46AF
:100E9C0080BD00BF0008014080B500AF01220221D7
:100EAC00074800F060FC052000F0BAF9002202218E
:100EBC00034800F058FC052000F0B2F900BF80BDDB
:100ECC000008014080B582B000AF0346FB710022E0
:100EDC0001210C4800F047FCFB791B09DBB21846DA
:100EEC00FFF7A4FFFFF7D8FFFB7903F00F03DBB28A
:100EFC001846FFF79BFFFFF7CFFF00BF0837BD4633
:100F0C0080BD00BF0008014080B582B000AF034631
:100F1C00FB71012201210C4800F025FCFB791B0917
:100F2C00DBB21846FFF782FFFFF7B6FFFB7903F041
:100F3C000F03DBB21846FFF779FFFFF7ADFF00BFD9
:100F4C000837BD4680BD00BF0008014080B500AF2A
:100F5C00642000F065F90220FFF7B4FF2820FFF7AA
:100F6C00B1FF0C20FFF7AEFF0620FFF7ABFF01200F
:100F7C00FFF7A8FF0A2000F053F900BF80BD80B531
:100F8C0082B000AF786006E07B685A1C7A601B78F0
:100F9C001846FFF7B9FF7B681B78002BF4D100BF14
:100FAC0000BF0837BD4680BD80B500AF0120FFF7FC
:100FBC0089FF0A2000F034F900BF80BD80B584B0F1
:100FCC0000AF03460A46FB711346BB71FB79002B3D
:100FDC0002D1BB79FB7302E0BB794033FB73FB7B23
:100FEC0063F07F03DBB21846FFF76CFF00BF1037CE
:100FFC00BD4680BD80B500AF0F20FFF763FF00BF7B
:10100C0080BD80B500AF0C20FFF75CFF00BF80BD3A
:10101C0080B485B000AF154B9B69144A43F00103B3
:10102C009361124B9B6903F00103BB60BB680F4BD0
:10103C00DB690E4A43F08053D3610C4BDB6903F040
:10104C0080537B607B680A4B5B68FB60FB6823F01A
:10105C00E063FB60FB6843F00073FB60044AFB68D1
:10106C00536000BF1437BD4680BC7047001002406F
:10107C000000014080B485B000AF78607B681B68CD
:10108C00B3F1804F0BD1084BDB69074A43F00103E6
:10109C00D361054BDB6903F00103FB60FB6800BF08
:1010AC001437BD4680BC70470010024080B400AFBE
:1010BC0000BFFDE780B400AF00BFFDE780B400AF18
:1010CC0000BFFDE780B400AF00BFFDE780B400AF08
:1010DC0000BFFDE780B400AF00BFBD4680BC7047C9
:1010EC0080B400AF00BFBD4680BC704780B400AF79
:1010FC0000BFBD4680BC704780B500AF00F074F8EF
:10110C0000BF80BD80B400AF00BFBD4680BC70473F
:10111C00FFF7F8FF0B480C490C4A002302E0D458A7
:10112C00C4500433C4188C42F9D3094A094C002327
:10113C0001E013600432A242FBD301F05FFAFFF727
:10114C003FF8704700000020300000206C2700089A
:10115C0030000020C8000020FEE7000080B500AF82
:10116C00084B1B68074A43F010031360032000F080
:10117C002BF90F2000F008F8FFF74AFF0023184660
:10118C0080BD00BF0020024080B582B000AF786007
:10119C00124B1A68124B1B7819464FF47A73B3FB37
:1011AC00F1F3B2FBF3F3184600F035F90346002BCC
:1011BC0001D001230EE07B680F2B0AD8002279683E
:1011CC004FF0FF3000F00BF9064A7B6813600023E8
:1011DC0000E0012318460837BD4680BD24000020DE
:1011EC002C0000202800002080B400AF054B1B7899
:1011FC001A46054B1B681344034A136000BFBD46D7
:10120C0080BC70472C000020C400002080B400AFCC
:10121C00024B1B681846BD4680BC7047C4000020BA
:10122C0080B584B000AF7860FFF7F0FFB8607B68E2
:10123C00FB60FB68B3F1FF3F05D00A4B1B781A46E5
:10124C00FB681344FB6000BFFFF7E0FF0246BB687E
:10125C00D31AFA689A42F7D800BF00BF1037BD46C0
:10126C0080BD00BF2C00002080B485B000AF78603A
:10127C007B6803F00703FB600C4BDB68BB60BA6850
:10128C004FF6FF031340BB60FB681A02BB681343A5
:10129C0043F0BF6343F40033BB60044ABB68D360C4
:1012AC0000BF1437BD4680BC704700BF00ED00E0A6
:1012BC0080B400AF044BDB681B0A03F0070318462D
:1012CC00BD4680BC704700BF00ED00E080B483B029
:1012DC0000AF03463960FB7197F90730002B0ADB2E
:1012EC003B68DAB20C4997F907301201D2B20B44C1
:1012FC0083F800230AE03B68DAB20849FB7903F073
:10130C000F03043B1201D2B20B441A7600BF0C3708
:10131C00BD4680BC704700BF00E100E000ED00E07E
:10132C0080B489B000AFF860B9607A60FB6803F0F4
:10133C000703FB61FB69C3F10703042B28BF0423DC
:10134C00BB61FB690433062B02D9FB69033B00E04C
:10135C0000237B614FF0FF32BB6902FA03F3DA43DF
:10136C00BB681A407B699A404FF0FF317B6901FAE8
:10137C0003F3D9437B680B40134318462437BD460F
:10138C0080BC704780B582B000AF78607B68013B51
:10139C00B3F1807F01D301230FE00A4A7B68013B44
:1013AC0053600F214FF0FF30FFF790FF054B0022E9
:1013BC009A60044B07221A60002318460837BD4672
:1013CC0080BD00BF10E000E080B582B000AF786057
:1013DC007868FFF749FF00BF0837BD4680BD80B570
:1013EC0086B000AF0346B9607A60FB7300237B6163
:1013FC00FFF75EFF78617A68B9687869FFF790FF4C
:10140C00024697F90F3011461846FFF75FFF00BFF1
:10141C001837BD4680BD80B582B000AF7860786863
:10142C00FFF7B0FF034618460837BD4680BD0000E5
:10143C0080B48BB000AF7860396000237B620023EE
:10144C003B6269E101227B6A02FA03F3FB613B68B0
:10145C001B68FA691340BB61BA69FB699A4240F098
:10146C0058813B685B689A4A93425ED0984A934293
:10147C0075D8984A934258D0964A93426FD8964A58
:10148C00934252D0944A934269D8944A93424CD096
:10149C00924A934263D8924A934246D0904A9342DE
:1014AC005DD8122B2AD8122B59D801A252F823F04E
:1014BC0037150008111500082315000865150008DC
:1014CC006B1500086B1500086B1500086B150008F0
:1014DC006B1500086B1500086B1500086B150008E0
:1014EC006B1500086B1500086B1500086B150008D0
:1014FC006B150008191500082D150008794A934240
:10150C0013D02CE03B68DB683B6229E03B68DB686E
:10151C0004333B6224E03B68DB6808333B621FE02A
:10152C003B68DB680C333B621AE03B689B68002B22
:10153C0002D104233B6213E03B689B68012B05D16D
:10154C0008233B627B68FA691A6109E008233B6255
:10155C007B68FA695A6103E000233B6200E000BF3C
:10156C00BB69FF2B01D87B6801E07B6804337B618E
:10157C00BB69FF2B02D87B6A9B0002E07B6A083BAD
:10158C009B003B617B691A680F213B6901FA03F3ED
:10159C00DB431A40396A3B6901FA03F31A437B694E
:1015AC001A603B685B6803F08053002B00F0B1803D
:1015BC004D4B9B694C4A43F0010393614A4B9B6929
:1015CC0003F00103BB60BB68484A7B6A9B0802338B
:1015DC0052F82330FB607B6A03F003039B000F225D
:1015EC0002FA03F3DB43FA681340FB607B68404A62
:1015FC00934213D07B683F4A93420DD07B683E4A9E
:10160C00934207D07B683D4A934201D1032306E005
:10161C00042304E0022302E0012300E000237A6AA1
:10162C0002F0030292009340FA681343FB602F49C7
:10163C007B6A9B080233FA6841F823203B685B689D
:10164C0003F48013002B06D02D4B9A682C49BB69F0
:10165C0013438B6006E02A4B9A68BB69DB4328492D
:10166C0013408B603B685B6803F40013002B06D0BF
:10167C00234BDA682249BB691343CB6006E0204B4D
:10168C00DA68BB69DB431E491340CB603B685B687F
:10169C0003F40033002B06D0194B5A681849BB6968
:1016AC0013434B6006E0164B5A68BB69DB43144985
:1016BC0013404B603B685B6803F48033002B21D0F4
:1016CC000F4B1A680E49BB6913430B6021E000BF36
:1016DC000000321000003110000022100000211018
:1016EC000000121000001110001002400000014018
:1016FC0000080140000C01400010014000140140A2
:10170C00000401400B4B1A68BB69DB4309491340C9
:10171C000B607B6A01337B623B681A687B6A22FA36
:10172C0003F3002B7FF48EAE00BF00BF2C37BD46F9
:10173C0080BC70470004014080B485B000AF786075
:10174C000B467B807B689A687B881340002B02D009
:10175C000123FB7301E00023FB73FB7B184614375A
:10176C00BD4680BC704780B483B000AF78600B4638
:10177C007B8013467B707B78002B03D07A887B6848
:10178C001A6103E07B881A047B681A6100BF0C376E
:10179C00BD4680BC7047000080B586B000AF786055
:1017AC007B68002B01D1012372E27B681B6803F07C
:1017BC000103002B00F08780924B5B6803F00C0355
:1017CC00042B0CD08F4B5B6803F00C03082B12D14D
:1017DC008C4B5B6803F48033B3F5803F0BD1894BA2
:1017EC001B6803F40033002B6CD07B685B68002B08
:1017FC0068D101234CE27B685B68B3F5803F06D16E
:10180C00804B1B687F4A43F4803313602EE07B6867
:10181C005B68002B0CD17B4B1B687A4A23F480331A
:10182C001360784B1B68774A23F4802313601DE008
:10183C007B685B68B3F5A02F0CD1724B1B68714AA7
:10184C0043F4802313606F4B1B686E4A43F4803360
:10185C0013600BE06B4B1B686A4A23F480331360F4
:10186C00684B1B68674A23F4802313607B685B68B2
:10187C00002B13D0FFF7CAFC386108E0FFF7C6FC59
:10188C0002463B69D31A642B01D9032300E25D4B5A
:10189C001B6803F40033002BF0D014E0FFF7B6FC08
:1018AC00386108E0FFF7B2FC02463B69D31A642B9F
:1018BC0001D90323ECE1534B1B6803F40033002BD9
:1018CC00F0D100E000BF7B681B6803F00203002B23
:1018DC0063D04C4B5B6803F00C03002B0BD0494BD3
:1018EC005B6803F00C03082B1CD1464B5B6803F4BC
:1018FC008033002B16D1434B1B6803F00203002BE3
:10190C0005D07B681B69012B01D00123C0E13D4B45
:10191C001B6823F0F8027B685B69DB0039491343D1
:10192C000B603AE07B681B69002B20D0364B012200
:10193C001A60FFF76BFC386108E0FFF767FC0246A2
:10194C003B69D31A022B01D90323A1E12D4B1B6850
:10195C0003F00203002BF0D02A4B1B6823F0F80293
:10196C007B685B69DB00274913430B6015E0264B52
:10197C0000221A60FFF74AFC386108E0FFF746FCCA
:10198C0002463B69D31A022B01D9032380E11D4B7C
:10199C001B6803F00203002BF0D17B681B6803F07B
:1019AC000803002B3AD07B689B69002B19D0174B8E
:1019BC0001221A60FFF72AFC386108E0FFF726FCC9
:1019CC0002463B69D31A022B01D9032360E10D4B6C
:1019DC005B6A03F00203002BF0D0012000F09CFAAC
:1019EC001CE00A4B00221A60FFF710FC38610FE074
:1019FC00FFF70CFC02463B69D31A022B08D90323D0
:101A0C0046E100BF00100240000042428004424206
:101A1C00924B5B6A03F00203002BE9D17B681B68D5
:101A2C0003F00403002B00F0A6800023FB758B4B06
:101A3C00DB6903F08053002B0DD1884BDB69874A9F
:101A4C0043F08053D361854BDB6903F08053BB605B
:101A5C00BB680123FB75824B1B6803F48073002B5E
:101A6C0018D17F4B1B687E4A43F480731360FFF7D9
:101A7C00CDFB386108E0FFF7C9FB02463B69D31A7E
:101A8C00642B01D9032303E1754B1B6803F48073AA
:101A9C00002BF0D07B68DB68012B06D16F4B1B6AE7
:101AAC006E4A43F0010313622DE07B68DB68002B68
:101ABC000CD16A4B1B6A694A23F001031362674B12
:101ACC001B6A664A23F0040313621CE07B68DB6824
:101ADC00052B0CD1614B1B6A604A43F00403136263
:101AEC005E4B1B6A5D4A43F0010313620BE05B4BD8
:101AFC001B6A5A4A23F001031362584B1B6A574A5C
:101B0C0023F0040313627B68DB68002B15D0FFF70E
:101B1C007DFB38610AE0FFF779FB02463B69D31A7B
:101B2C0041F28832934201D90323B1E04B4B1B6A3B
:101B3C0003F00203002BEED014E0FFF767FB3861D3
:101B4C000AE0FFF763FB02463B69D31A41F2883285
:101B5C00934201D903239BE0404B1B6A03F0020321
:101B6C00002BEED1FB7D012B05D13C4BDB693B4AB5
:101B7C0023F08053D3617B68DB69002B00F08780F6
:101B8C00364B5B6803F00C03082B61D07B68DB6978
:101B9C00022B46D1334B00221A60FFF737FB38611A
:101BAC0008E0FFF733FB02463B69D31A022B01D93D
:101BBC0003236DE0294B1B6803F00073002BF0D15D
:101BCC007B681B6AB3F5803F08D1244B5B6823F418
:101BDC0000327B689B68214913434B601F4B5B6849
:101BEC0023F474127B68196A7B685B6A0B431B498C
:101BFC0013434B601B4B01221A60FFF707FB386144
:101C0C0008E0FFF703FB02463B69D31A022B01D90C
:101C1C0003233DE0114B1B6803F00073002BF0D045
:101C2C0035E0104B00221A60FFF7F0FA386108E03B
:101C3C00FFF7ECFA02463B69D31A022B01D90323B6
:101C4C0026E0064B1B6803F00073002BF0D11EE05E
:101C5C007B68DB69012B07D1012319E000100240DE
:101C6C0000700040600042420B4B5B68FB60FB68FD
:101C7C0003F480327B681B6A9A4206D1FB6803F43A
:101C8C0070127B685B6A9A4201D0012300E000234A
:101C9C0018461837BD4680BD0010024080B584B090
:101CAC0000AF786039607B68002B01D10123D0E054
:101CBC006A4B1B6803F007033A689A4210D9674BCA
:101CCC001B6823F0070265493B6813430B60634BA9
:101CDC001B6803F007033A689A4201D00123B8E06D
:101CEC007B681B6803F00203002B20D07B681B6809
:101CFC0003F00403002B05D0594B5B68584A43F49E
:101D0C00E06353607B681B6803F00803002B05D06D
:101D1C00534B5B68524A43F460535360504B5B68BF
:101D2C0023F0F0027B689B684D4913434B607B6842
:101D3C001B6803F00103002B40D07B685B68012B10
:101D4C0007D1474B1B6803F40033002B15D101233B
:101D5C007FE07B685B68022B07D1414B1B6803F06B
:101D6C000073002B09D1012373E03D4B1B6803F07A
:101D7C000203002B01D101236BE0394B5B6823F08C
:101D8C0003027B685B68364913434B60FFF73EFAEE
:101D9C00F8600AE0FFF73AFA0246FB68D31A41F200
:101DAC008832934201D9032353E02D4B5B6803F037
:101DBC000C027B685B689B009A42EBD1274B1B683B
:101DCC0003F007033A689A4210D2244B1B6823F0A5
:101DDC00070222493B6813430B60204B1B6803F03E
:101DEC0007033A689A4201D0012332E07B681B68F2
:101DFC0003F00403002B08D0194B5B6823F4E0625A
:101E0C007B68DB68164913434B607B681B6803F0E7
:101E1C000803002B09D0124B5B6823F460527B68DB
:101E2C001B69DB000E4913434B6000F021F802469E
:101E3C000B4B5B681B0903F00F030A49CB5C22FABE
:101E4C0003F3094A1360094B1B681846FFF79CF90A
:101E5C00002318461037BD4680BD00BF002002404D
:101E6C000010024040270008240000202800002019
:101E7C0080B487B000AF0023FB600023BB6000235D
:101E8C007B6100237B6000233B611E4B5B68FB6026
:101E9C00FB6803F00C03042B02D0082B03D027E0C3
:101EAC00194B3B6127E0FB689B0C03F00F03174AAF
:101EBC00D35C7B60FB6803F48033002B10D0114B98
:101ECC005B685B0C03F00103114AD35CBB607B685D
:101EDC000D4A03FB02F2BB68B2FBF3F37B6104E037
:101EEC007B680C4A02FB03F37B617B693B6102E07C
:101EFC00054B3B6100BF3B6918461C37BD4680BC97
:101F0C00704700BF0010024000127A0050270008F2
:101F1C006027000800093D0080B485B000AF7860F0
:101F2C000A4B1B680A4AA2FB03235B0A7A6802FB72
:101F3C0003F3FB6000BFFB685A1EFA60002BF9D15B
:101F4C0000BF00BF1437BD4680BC70472400002082
:101F5C00D34D621080B582B000AF78607B68002BE7
:101F6C0001D1012341E07B6893F83D30DBB2002BBB
:101F7C0006D17B68002283F83C207868FFF77AF85A
:101F8C007B68022283F83D207B681A687B680433E7
:101F9C001946104600F036F97B68012283F846207A
:101FAC007B68012283F83E207B68012283F83F2066
:101FBC007B68012283F840207B68012283F8412052
:101FCC007B68012283F842207B68012283F843203E
:101FDC007B68012283F844207B68012283F845202A
:101FEC007B68012283F83D20002318460837BD4644
:101FFC0080BD80B584B000AF786039600023FB737E
:10200C007B6893F83C30012B01D10223B4E07B6850
:10201C00012283F83C207B68022283F83D207B68F8
:10202C001B689B68BB60BB6823F07703BB60BB6815
:10203C0023F47F43BB607B681B68BA689A603B687B
:10204C001B68B3F5005F3ED0B3F5005F00F28780EC
:10205C00B3F5805F00F08680B3F5805F7FD8702B7E
:10206C001AD0702B7BD8602B50D0602B77D8502B8C
:10207C003CD0502B73D8402B58D0402B6FD8302BE2
:10208C0064D0302B6BD8202B60D0202B67D8002B42
:10209C005CD0102B5AD062E07B6818683B6899685A
:1020AC003B685A683B68DB6800F022FA7B681B6867
:1020BC009B68BB60BB6843F07703BB607B681B68A5
:1020CC00BA689A604FE07B6818683B6899683B680F
:1020DC005A683B68DB6800F00BFA7B681B689A68EF
:1020EC007B681B6842F480429A603CE07B6818680D
:1020FC003B6859683B68DB681A4600F082F97B68DC
:10210C001B685021184600F0D9F92CE07B68186840
:10211C003B6859683B68DB681A4600F0A0F97B689D
:10212C001B686021184600F0C9F91CE07B68186830
:10213C003B6859683B68DB681A4600F062F97B68BB
:10214C001B684021184600F0B9F90CE07B681A684E
:10215C003B681B681946104600F0B0F903E00123F8
:10216C00FB7300E000BF7B68012283F83D207B6895
:10217C00002283F83C20FB7B18461037BD4680BDFF
:10218C0080B582B000AF786039607B6893F83C30E2
:10219C00012B01D1022331E07B68012283F83C2022
:1021AC007B68022283F83D203968786800F098F843
:1021BC000346002B09D07B68012283F83D207B6805
:1021CC00002283F83C20012318E07B681B68DA6846
:1021DC007B681B6822F04002DA607B681B68DA6857
:1021EC007B681B6822F48042DA607B68012283F8EA
:1021FC003D207B68002283F83C20002318460837DA
:10220C00BD4680BD80B485B000AF786039607B6816
:10221C001B68FB607B682F4A93420BD07B68B3F141
:10222C00804F07D07B682C4A934203D07B682B4AA3
:10223C00934208D1FB6823F07003FB603B685B683A
:10224C00FA681343FB607B68224A93420BD07B688D
:10225C00B3F1804F07D07B681F4A934203D07B6851
:10226C001E4A934208D1FB6823F44073FB603B6821
:10227C00DB68FA681343FB60FB6823F080023B6861
:10228C005B691343FB607B68FA681A603B689A6869
:10229C007B68DA623B681A687B689A627B680D4AD5
:1022AC00934203D13B681A697B681A637B680122ED
:1022BC005A617B681B6903F00103002B05D07B6816
:1022CC001B6923F001027B681A6100BF1437BD46FD
:1022DC0080BC7047002C0140000400400008004006
:1022EC0080B586B000AF786039600023FB757B68E1
:1022FC001B689B683B613B6923F070033B613B6847
:10230C005B683A6913433B613B6923F007033B610C
:10231C003B681B683A6913433B617B681B683A69ED
:10232C009A603B685B68702B1AD0702B60D8602B5E
:10233C0054D0602B5CD8502B46D0502B58D8402B07
:10234C0019D0402B54D8302B55D0302B50D8202BB3
:10235C0051D0202B4CD8002B4DD0102B4BD047E01C
:10236C007B6818683B68D9683B689A683B681B694E
:10237C0000F0BEF840E03B681B68052B01D101233F
:10238C003BE07B681B681B6AFB607B681B681A6AF6
:10239C007B681B6822F001021A627B681B689B69D0
:1023AC00BB60BB6823F0F003BB603B681B691B017F
:1023BC00BA681343BB607B681B68BA689A617B6818
:1023CC001B68FA681A6217E07B6818683B689968A2
:1023DC003B681B691A4600F014F80DE07B6818681E
:1023EC003B6899683B681B691A4600F038F803E0B3
:1023FC000123FB7500E000BFFB7D18461837BD4676
:10240C0080BD80B487B000AFF860B9607A60FB68BB
:10241C001B6A7B61FB681B6A23F00102FB681A6272
:10242C00FB689B693B613B6923F0F0033B617B6874
:10243C001B013A6913433B617B6923F00A037B61FF
:10244C007A69BB6813437B61FB683A699A61FB68E4
:10245C007A691A6200BF1C37BD4680BC704780B4D5
:10246C0087B000AFF860B9607A60FB681B6A7B616B
:10247C00FB681B6A23F01002FB681A62FB689B69FD
:10248C003B613B6923F470433B617B681B033A69F6
:10249C0013433B617B6923F0A0037B61BB681B0189
:1024AC007A6913437B61FB683A699A61FB687A69C4
:1024BC001A6200BF1C37BD4680BC704780B485B023
:1024CC0000AF786039607B689B68FB60FB6823F029
:1024DC007003FB603A68FB68134343F00703FB602F
:1024EC007B68FA689A6000BF1437BD4680BC7047A1
:1024FC0080B487B000AFF860B9607A603B60FB686D
:10250C009B687B617B6923F47F437B613B681A0288
:10251C007B681A43BB6813437A6913437B61FB687E
:10252C007A699A6000BF1C37BD4680BC70470000BA
:10253C0080B485B000AF786039607B6893F83C302C
:10254C00012B01D1022346E07B68012283F83C2059
:10255C007B68022283F83D207B681B685B68FB600C
:10256C007B681B689B68BB60FB6823F07003FB6097
:10257C003B681B68FA681343FB607B681B68FA684E
:10258C005A607B681B68164A93420ED07B681B68A6
:10259C00B3F1804F09D07B681B68124A934204D078
:1025AC007B681B68104A93420CD1BB6823F08003F4
:1025BC00BB603B685B68BA681343BB607B681B6895
:1025CC00BA689A607B68012283F83D207B68002200
:1025DC0083F83C20002318461437BD4680BC704756
:1025EC00002C014000040040000800400346024457
:1025FC00934200D1704703F8011BF9E770B5002630
:10260C000C4D0D4C641BA410A64209D100F01AF815
:10261C0000260A4D0A4C641BA410A64205D170BDBD
:10262C0055F8043B98470136EEE755F8043B9847BC
:10263C000136F2E7642700086427000864270008C5
:10264C0068270008F8B500BFF8BC08BC9E46704768
:0C265C00F8B500BFF8BC08BC9E467047F3
:1026680057454C4C434F4D452100000050415353B2
:10267800434F44453A00000057616974696E672EFC
:102688002E2E0000456E746572204F6C64205061D8
:10269800737300003D3E000046414C53452C00003A
:1026A800504C4541534520414741494E20210000A7
:1026B800456E746572204E65772050617373000013
:1026C8004641494C2C000000504C4541534520419F
:1026D8004741494E2100000057414954494E47207F
:1026E800464F522033307300486948692C5355438C
:1026F800434553532121000057454C4C434F4D450A
:1027080021212100370000003400000031000000C2
:102718002A000000380000003500000032000000E8
:1027280030000000390000003600000033000000CF
:10273800230000002000000000000000000000004E
:10274800010203040607080902030405060708092D
:0C2758000A0B0C0D0E0F10100102000007
:042764003101000837
:042768000D01000857
:10276C000100000002000000030000000400000053
:10277C000500000006000000010000000900000038
:10278C000300000000127A0010000000010000009D
:040000050800111DC1
:00000001FF
